0122010015999992010010112204+61383+005867FM-15+0327ENBL V0201101N005712200019N0112651N1-00501-01101999999ADDGA1041+015001999GF104991999999999999999999MA1100411999999REMMET053METAR ENBL 011220Z 11011KT 9999 SCT050 M05/M11 Q1004;
0122010015999992010010112504+61383+005867FM-15+0327ENBL V0201101N004612200019N0112651N1-00501-01101999999ADDGA1041+015001999GF104991999999999999999999MA1100411999999REMMET053METAR ENBL 011250Z 11009KT 9999 SCT050 M05/M11 Q1004;
0122010015999992010010113204+61383+005867FM-15+0327ENBL V0201101N004112200019N0112651N1-00501-01101999999ADDGA1041+015001999GF104991999999999999999999MA1100511999999REMMET053METAR ENBL 011320Z 11008KT 9999 SCT050 M05/M11 Q1005;
0122010015999992010010113504+61383+005867FM-15+0327ENBL V0201001N002612200019N0112651N1-00601-01201999999ADDGA1021+015001999GF102991999999999999999999MA1100511999999REMMET053METAR ENBL 011350Z 10005KT 9999 FEW050 M06/M12 Q1005;
0122010015999992010010114204+61383+005867FM-15+0327ENBL V0200801N003112200019N0112651N1-00701-01201999999ADDGA1021+015001999GF102991999999999999999999MA1100611999999REMMET053METAR ENBL 011420Z 08006KT 9999 FEW050 M07/M12 Q1006;
0074010015999992010010114504+61383+005867FM-15+0327ENBL V0200801N004119999999Y0099001N1-00601-01301999999ADDMA1100611999999REMMET047METAR ENBL 011450Z 08008KT CAVOK M06/M13 Q1006;
0074010015999992010010115204+61383+005867FM-15+0327ENBL V0201001N006219999999Y0099001N1-00601-01201999999ADDMA1100711999999REMMET047METAR ENBL 011520Z 10012KT CAVOK M06/M12 Q1007;
0074010015999992010010115504+61383+005867FM-15+0327ENBL V0200901N002619999999Y0099001N1-00601-01301999999ADDMA1100711999999REMMET047METAR ENBL 011550Z 09005KT CAVOK M06/M13 Q1007;
0074010015999992010010116504+61383+005867FM-15+0327ENBL V0200901N002619999999Y0099001N1-00801-01301999999ADDMA1100811999999REMMET047METAR ENBL 011650Z 09005KT CAVOK M08/M13 Q1008;
0074010015999992010010117504+61383+005867FM-15+0327ENBL V0201201N004119999999Y0099001N1-00601-01301999999ADDMA1100911999999REMMET047METAR ENBL 011750Z 12008KT CAVOK M06/M13 Q1009;
0074010015999992010010118504+61383+005867FM-15+0327ENBL V0200501N004119999999Y0099001N1-00901-01401999999ADDMA1101021999999REMMET047METAR ENBL 011850Z 05008KT CAVOK M09/M14 Q1010;
0074010015999992010010119504+61383+005867FM-15+0327ENBL V0209999V001019999999Y0099001N1-01001-01301999999ADDMA1101081999999REMMET047METAR ENBL 011950Z VRB02KT CAVOK M10/M13 Q1011;
0074010015999992010010120504+61383+005867FM-15+0327ENBL V0209999V001019999999Y0099001N1-01001-01401999999ADDMA1101191999999REMMET047METAR ENBL 012050Z VRB02KT CAVOK M10/M14 Q1012;
0074010015999992010010206504+61383+005867FM-15+0327ENBL V0209999V001519999999Y0099001N1-01101-01601999999ADDMA1101801999999REMMET047METAR ENBL 020650Z VRB03KT CAVOK M11/M16 Q1018;
0074010015999992010010207504+61383+005867FM-15+0327ENBL V0209999V001519999999Y0099001N1-01101-01601999999ADDMA1101901999999REMMET047METAR ENBL 020750Z VRB03KT CAVOK M11/M16 Q1019;
0074010015999992010010208504+61383+005867FM-15+0327ENBL V0203201N001519999999Y0099001N1-01201-01601999999ADDMA1102001999999REMMET047METAR ENBL 020850Z 32003KT CAVOK M12/M16 Q1020;
0074010015999992010010209504+61383+005867FM-15+0327ENBL V0203301N001519999999Y0099001N1-01201-01601999999ADDMA1102001999999REMMET047METAR ENBL 020950Z 33003KT CAVOK M12/M16 Q1020;
0074010015999992010010210504+61383+005867FM-15+0327ENBL V0203301N001019999999Y0099001N1-01101-01501999999ADDMA1102101999999REMMET047METAR ENBL 021050Z 33002KT CAVOK M11/M15 Q1021;
0074010015999992010010211504+61383+005867FM-15+0327ENBL V0203301N001019999999Y0099001N1-01001-01001999999ADDMA1102101999999REMMET047METAR ENBL 021150Z 33002KT CAVOK M10/M10 Q1021;
0074010015999992010010212504+61383+005867FM-15+0327ENBL V0200301N001519999999Y0099001N1-00901-01501999999ADDMA1102201999999REMMET047METAR ENBL 021250Z 03003KT CAVOK M09/M15 Q1022;
0074010015999992010010213504+61383+005867FM-15+0327ENBL V0209999V000519999999Y0099001N1-00901-01501999999ADDMA1102201999999REMMET047METAR ENBL 021350Z VRB01KT CAVOK M09/M15 Q1022;
0075010015999992010010214504+61383+005867FM-15+0327ENBL V0203501N002119999999Y0099001N1-01201-01501999999ADDMA1102201999999REMMET048METAR ENBL 021450Z 35004KT CAVOK M012/M15 Q1022;
0155010015999992010010310504+61383+005867FM-15+0327ENBL V0202601N001010051019N0090001N1-00801-00901999999ADDGA1021+002401999GA2071+005101999GF107991999999999999999999MA1101801999999MW1711REMMET064METAR ENBL 031050Z 26002KT 9000 -SN FEW008 BKN017 M08/M09 Q1018;
0178010015999992010010311504+61383+005867FM-15+0327ENBL V0209999V00101004501CN0090001N1-00801-00801999999ADDGA1021+002401999GA2041+004501999GA3071+006001999GF107991999999999999999999MA1101691999999MW1711REMMET071METAR ENBL 031150Z VRB02KT 9000 -SN FEW008 SCT015 BKN020 M08/M08 Q1017;
0156010015999992010010312504+61383+005867FM-15+0327ENBL V0202801N001010051019N0112651N1-00801-00801999999ADDGA1041+003601999GA2071+005101999GF107991999999999999999999MA1101691999999MW1161REMMET065METAR ENBL 031250Z 28002KT 9999 VCSH SCT012 BKN017 M08/M08 Q1017;
0178010015999992010010313504+61383+005867FM-15+0327ENBL V0209999V00101003901CN0112651N1-00701-00801999999ADDGA1021+002401999GA2041+003901999GA3071+005101999GF107991999999999999999999MA1101591999999MW1711REMMET071METAR ENBL 031350Z VRB02KT 9999 -SN FEW008 SCT013 BKN017 M07/M08 Q1016;
0168010015999992010010314504+61383+005867FM-15+0327ENBL V0209999V00101003601CN0112651N1-00701-00801999999ADDGA1021+002401999GA2041+003601999GA3071+006001999GF107991999999999999999999MA1101591999999REMMET067METAR ENBL 031450Z VRB02KT 9999 FEW008 SCT012 BKN020 M07/M08 Q1016;
0178010015999992010010315504+61383+005867FM-15+0327ENBL V0209999V00101004501CN0112651N1-00701-00801999999ADDGA1021+002401999GA2041+004501999GA3071+009001999GF107991999999999999999999MA1101591999999MW1711REMMET071METAR ENBL 031550Z VRB02KT 9999 -SN FEW008 SCT015 BKN030 M07/M08 Q1016;
0178010015999992010010317204+61383+005867FM-15+0327ENBL V0209999V00101003601CN0112651N1-00701-00701999999ADDGA1021+002401999GA2041+003601999GA3071+006001999GF107991999999999999999999MA1101491999999MW1711REMMET071METAR ENBL 031720Z VRB02KT 9999 -SN FEW008 SCT012 BKN020 M07/M07 Q1015;
0178010015999992010010317504+61383+005867FM-15+0327ENBL V0209999V00051003601CN0112651N1-00701-00801999999ADDGA1021+002401999GA2041+003601999GA3071+006001999GF107991999999999999999999MA1101491999999MW1711REMMET071METAR ENBL 031750Z VRB01KT 9999 -SN FEW008 SCT012 BKN020 M07/M08 Q1015;
0155010015999992010010318204+61383+005867FM-15+0327ENBL V0209999V000510051019N0112651N1-00701-00701999999ADDGA1041+002401999GA2071+005101999GF107991999999999999999999MA1101391999999MW1711REMMET064METAR ENBL 031820Z VRB01KT 9999 -SN SCT008 BKN017 M07/M07 Q1014;
0155010015999992010010318504+61383+005867FM-15+0327ENBL V0209999V000510051019N0112651N1-00701-00701999999ADDGA1041+002401999GA2071+005101999GF107991999999999999999999MA1101391999999MW1711REMMET064METAR ENBL 031850Z VRB01KT 9999 -SN SCT008 BKN017 M07/M07 Q1014;
0155010015999992010010319204+61383+005867FM-15+0327ENBL V0209999V000510060019N0112651N1-00701-00701999999ADDGA1021+002401999GA2071+006001999GF107991999999999999999999MA1101391999999MW1711REMMET064METAR ENBL 031920Z VRB01KT 9999 -SN FEW008 BKN020 M07/M07 Q1014;
0155010015999992010010319504+61383+005867FM-15+0327ENBL V0209999V000510060019N0112651N1-00701-00701999999ADDGA1021+002401999GA2071+006001999GF107991999999999999999999MA1101391999999MW1711REMMET064METAR ENBL 031950Z VRB01KT 9999 -SN FEW008 BKN020 M07/M07 Q1014;
0155010015999992010010320204+61383+005867FM-15+0327ENBL V0209999V000510060019N0112651N1-00701-00701999999ADDGA1041+002101999GA2071+006001999GF107991999999999999999999MA1101391999999MW1711REMMET064METAR ENBL 032020Z VRB01KT 9999 -SN SCT007 BKN020 M07/M07 Q1014;
0155010015999992010010320504+61383+005867FM-15+0327ENBL V0209999V000510060019N0112651N1-00701-00701999999ADDGA1041+001801999GA2071+006001999GF107991999999999999999999MA1101291999999MW1711REMMET064METAR ENBL 032050Z VRB01KT 9999 -SN SCT006 BKN020 M07/M07 Q1013;
0178010015999992010010321504+61383+005867FM-15+0327ENBL V0209999V00101002101CN0090001N1-00701-00701999999ADDGA1021+000901999GA2041+002101999GA3071+006001999GF107991999999999999999999MA1101291999999MW1711REMMET071METAR ENBL 032150Z VRB02KT 9000 -SN FEW003 SCT007 BKN020 M07/M07 Q1013;
0174010015999992010010404504+61383+005867FM-15+0327ENBL V0200701N00211003001CN0050001N1-00401-00501999999ADDGA1021+000901999GA2041+003001999GA3071+006001999GF107991999999999999999999MA1100711999999REMMET073METAR ENBL 040450Z 07004KT 5000 -SHSN FEW003 SCT010 BKN020 M04/M05 Q1007;
0181010015999992010010405204+61383+005867FM-15+0327ENBL V0209999V00051003001CN0050001N1-00401-00501999999ADDGA1021+000901999GA2041+003001999GA3071+006001999GF107991999999999999999999MA1100711999999REMMET080METAR ENBL 040520Z VRB01KT 5000 -SHSN FEW003 SCT010 BKN020 M04/M05 Q1007 RESHSN;
0151010015999992010010405504+61383+005867FM-15+0327ENBL V0209999V000510075019N0112651N1-00401-00401999999ADDGA1021+004501999GA2071+007501999GF107991999999999999999999MA1100611999999REMMET066METAR ENBL 040550Z VRB01KT 9999 -SHSN FEW015 BKN025 M04/M04 Q1006;
0145010015999992010010406504+61383+005867FM-15+0327ENBL V0209999C000010120019N0112651N1-00401-00401999999ADDGA1021+007501999GA2071+012001999GF107991999999999999999999MA1100611999999REMMET060METAR ENBL 040650Z 00000KT 9999 FEW025 BKN040 M04/M04 Q1006;
0145010015999992010010407204+61383+005867FM-15+0327ENBL V0209999V000512200019N0112651N1-00401-00501999999ADDGA1021+002401999GA2041+012001999GF104991999999999999999999MA1100611999999REMMET060METAR ENBL 040720Z VRB01KT 9999 FEW008 SCT040 M04/M05 Q1006;
0145010015999992010010407504+61383+005867FM-15+0327ENBL V0209999V000512200019N0112651N1-00401-00401999999ADDGA1021+002401999GA2041+012001999GF104991999999999999999999MA1100611999999REMMET060METAR ENBL 040750Z VRB01KT 9999 FEW008 SCT040 M04/M04 Q1006;
0156010015999992010010408204+61383+005867FM-15+0327ENBL V0209999V000510075019N0070001N1-00401-00501999999ADDGA1041+002401999GA2071+007501999GF107991999999999999999999MA1100511999999MW1161REMMET065METAR ENBL 040820Z VRB01KT 7000 VCSH SCT008 BKN025 M04/M05 Q1005;
0151010015999992010010408504+61383+005867FM-15+0327ENBL V0209999V000510090019N0112651N1-00501-00501999999ADDGA1021+002401999GA2071+009001999GF107991999999999999999999MA1100511999999REMMET066METAR ENBL 040850Z VRB01KT 9999 -SHSN FEW008 BKN030 M05/M05 Q1005;
0123010015999992010010409504+61383+005867FM-15+0327ENBL V0202901N001012200019N0112651N1-00501-00601999999ADDGA1021+000151999GF102991999999999999999999MA1100511999999REMMET054METAR ENBL 040950Z 29002KT 9999 FEW0/// M05/M06 Q1005;
0168010015999992010010410204+61383+005867FM-15+0327ENBL V0203601N002110024019N0112651N1-00501-00501999999ADDGA1041+000601999GA2071+002401999GA3021+999999999GF107991999999999999999999MA1100511999999REMMET067METAR ENBL 041020Z 36004KT 9999 FEW/// SCT002 BKN008 M05/M05 Q1005;
0168010015999992010010410504+61383+005867FM-15+0327ENBL V0203501N001010024019N0112651N1-00501-00501999999ADDGA1041+001201999GA2071+002401999GA3021+999999999GF107991999999999999999999MA1100411999999REMMET067METAR ENBL 041050Z 35002KT 9999 FEW/// SCT004 BKN008 M05/M05 Q1004;
0168010015999992010010411204+61383+005867FM-15+0327ENBL V0203301N001510021019N0112651N1-00501-00501999999ADDGA1041+000901999GA2071+002101999GA3021+999999999GF107991999999999999999999MA1100411999999REMMET067METAR ENBL 041120Z 33003KT 9999 FEW/// SCT003 BKN007 M05/M05 Q1004;
0168010015999992010010412204+61383+005867FM-15+0327ENBL V0203301N001010021019N0112651N1-00501-00501999999ADDGA1041+000901999GA2071+002101999GA3021+999999999GF107991999999999999999999MA1100411999999REMMET067METAR ENBL 041220Z 33002KT 9999 FEW/// SCT003 BKN007 M05/M05 Q1004;
0145010015999992010010413204+61383+005867FM-15+0327ENBL V0209999V000510006019N0112651N1-00501-00501999999ADDGA1071+000601999GA2021+999999999GF107991999999999999999999MA1100411999999REMMET060METAR ENBL 041320Z VRB01KT 9999 FEW/// BKN002 M05/M05 Q1004;
0145010015999992010010413504+61383+005867FM-15+0327ENBL V0209999V001010006019N0112651N1-00501-00501999999ADDGA1071+000601999GA2021+999999999GF107991999999999999999999MA1100311999999REMMET060METAR ENBL 041350Z VRB02KT 9999 FEW/// BKN002 M05/M05 Q1003;
0145010015999992010010414204+61383+005867FM-15+0327ENBL V0209999V000510006019N0060001N1-00501-00501999999ADDGA1071+000601999GA2021+999999999GF107991999999999999999999MA1100311999999REMMET060METAR ENBL 041420Z VRB01KT 6000 FEW/// BKN002 M05/M05 Q1003;
0146010015999992010010414504+61383+005867FM-15+0327ENBL V0209999V000510006019N0020001N1-00601-00601999999ADDGA1071+000601999GA2021+999999999GF107991999999999999999999MA1100311999999REMMET061METAR ENBL 041450Z VRB01KT 2000W FEW/// BKN002 M06/M06 Q1003;
0132010015999992010010415204+61383+005867FM-15+0327ENBL V0209999V000510012019N0010001N1-00601-00601999999ADDGA1091+001201999GF109991999999000251999999MA1100311999999MW1411REMMET057METAR ENBL 041520Z VRB01KT 1000 BCFG VV004 M06/M06 Q1003;
0163010015999992010010415504+61383+005867FM-15+0327ENBL V0209999V000512200019N0010001N1-00601-00701999999ADDGA1041+000601999GA2041+010501999GF104991999999999999999999MA1100311999999MW1401REMMET072METAR ENBL 041550Z VRB01KT 1000E 9999W VCFG SCT002 SCT035 M06/M07 Q1003;
0152010015999992010010416504+61383+005867FM-15+0327ENBL V0203601N001012200019N0040001N1-00701-00701999999ADDGA1041+000601999GA2041+010501999GF104991999999999999999999MA1100311999999REMMET067METAR ENBL 041650Z 36002KT 4000E 1500W SCT002 SCT035 M07/M07 Q1003;
0122010015999992010010417504+61383+005867FM-15+0327ENBL V0209999V001010096019N0112651N1-00701-00801999999ADDGA1071+009601999GF107991999999999999999999MA1100311999999REMMET053METAR ENBL 041750Z VRB02KT 9999 BKN032 M07/M08 Q1003;
0122010015999992010010418504+61383+005867FM-15+0327ENBL V0203301N001010087019N0112651N1-00701-00801999999ADDGA1071+008701999GF107991999999999999999999MA1100311999999REMMET053METAR ENBL 041850Z 33002KT 9999 BKN029 M07/M08 Q1003;
0145010015999992010010419504+61383+005867FM-15+0327ENBL V0203301N001010084019N0112651N1-00601-00701999999ADDGA1021+004501999GA2071+008401999GF107991999999999999999999MA1100311999999REMMET060METAR ENBL 041950Z 33002KT 9999 FEW015 BKN028 M06/M07 Q1003;
0145010015999992010010420504+61383+005867FM-15+0327ENBL V0203301N001510105019N0112651N1-00601-00701999999ADDGA1041+008401999GA2071+010501999GF107991999999999999999999MA1100311999999REMMET060METAR ENBL 042050Z 33003KT 9999 SCT028 BKN035 M06/M07 Q1003;
0145010015999992010010421504+61383+005867FM-15+0327ENBL V0203301N001510075019N0112651N1-00601-00601999999ADDGA1041+006601999GA2071+007501999GF107991999999999999999999MA1100311999999REMMET060METAR ENBL 042150Z 33003KT 9999 SCT022 BKN025 M06/M06 Q1003;
0145010015999992010010422504+61383+005867FM-15+0327ENBL V0202801N001510105019N0112651N1-00601-00601999999ADDGA1041+006001999GA2071+010501999GF107991999999999999999999MA1100311999999REMMET060METAR ENBL 042250Z 28003KT 9999 SCT020 BKN035 M06/M06 Q1003;
0145010015999992010010504504+61383+005867FM-15+0327ENBL V0200401N002112200019N0112651N1-00601-00601999999ADDGA1021+006001999GA2041+009001999GF104991999999999999999999MA1100311999999REMMET060METAR ENBL 050450Z 04004KT 9999 FEW020 SCT030 M06/M06 Q1003;
0145010015999992010010505504+61383+005867FM-15+0327ENBL V0200401N002112200019N0112651N1-00601-00701999999ADDGA1021+006001999GA2041+009001999GF104991999999999999999999MA1100311999999REMMET060METAR ENBL 050550Z 04004KT 9999 FEW020 SCT030 M06/M07 Q1003;
0145010015999992010010506204+61383+005867FM-15+0327ENBL V0200501N002112200019N0112651N1-00701-00801999999ADDGA1021+006001999GA2041+009001999GF104991999999999999999999MA1100411999999REMMET060METAR ENBL 050620Z 05004KT 9999 FEW020 SCT030 M07/M08 Q1004;
0122010015999992010010506504+61383+005867FM-15+0327ENBL V0200201N002112200019N0112651N1-00701-00801999999ADDGA1021+006001999GF102991999999999999999999MA1100411999999REMMET053METAR ENBL 050650Z 02004KT 9999 FEW020 M07/M08 Q1004;
0122010015999992010010507504+61383+005867FM-15+0327ENBL V0200601N001512200019N0112651N1-00701-00801999999ADDGA1021+006001999GF102991999999999999999999MA1100411999999REMMET053METAR ENBL 050750Z 06003KT 9999 FEW020 M07/M08 Q1004;
0122010015999992010010508204+61383+005867FM-15+0327ENBL V0209999V001012200019N0112651N1-00701-00801999999ADDGA1021+006001999GF102991999999999999999999MA1100411999999REMMET053METAR ENBL 050820Z VRB02KT 9999 FEW020 M07/M08 Q1004;
0122010015999992010010509204+61383+005867FM-15+0327ENBL V0200601N003112200019N0112651N1-00801-00901999999ADDGA1021+006001999GF102991999999999999999999MA1100511999999REMMET053METAR ENBL 050920Z 06006KT 9999 FEW020 M08/M09 Q1005;
0121010015999992010010509504+61383+005867FM-15+0327ENBL V0200301N003112200019N0112651N1+99999+99999999999ADDGA1021+006001999GF102991999999999999999999MA1100501999999REMMET052METAR ENBL 050950Z 03006KT 9999 FEW020 M07M10 Q1005;
0122010015999992010010510204+61383+005867FM-15+0327ENBL V0200401N003112200019N0112651N1-00701-01001999999ADDGA1021+006001999GF102991999999999999999999MA1100611999999REMMET053METAR ENBL 051020Z 04006KT 9999 FEW020 M07/M10 Q1006;
0122010015999992010010510504+61383+005867FM-15+0327ENBL V0200301N004112200019N0112651N1-00601-01101999999ADDGA1021+006001999GF102991999999999999999999MA1100611999999REMMET053METAR ENBL 051050Z 03008KT 9999 FEW020 M06/M11 Q1006;
0074010015999992010010511504+61383+005867FM-15+0327ENBL V0200201N004619999999Y0099001N1-00601-01101999999ADDMA1100611999999REMMET047METAR ENBL 051150Z 02009KT CAVOK M06/M11 Q1006;
0074010015999992010010512204+61383+005867FM-15+0327ENBL V0200301N003619999999Y0099001N1-00601-01101999999ADDMA1100611999999REMMET047METAR ENBL 051220Z 03007KT CAVOK M06/M11 Q1006;
0074010015999992010010512504+61383+005867FM-15+0327ENBL V0200201N005119999999Y0099001N1-00601-01301999999ADDMA1100711999999REMMET047METAR ENBL 051250Z 02010KT CAVOK M06/M13 Q1007;
0074010015999992010010513204+61383+005867FM-15+0327ENBL V0200301N004619999999Y0099001N1-00601-01301999999ADDMA1100711999999REMMET047METAR ENBL 051320Z 03009KT CAVOK M06/M13 Q1007;
0074010015999992010010513504+61383+005867FM-15+0327ENBL V0200301N005119999999Y0099001N1-00701-01401999999ADDMA1100711999999REMMET047METAR ENBL 051350Z 03010KT CAVOK M07/M14 Q1007;
0074010015999992010010514204+61383+005867FM-15+0327ENBL V0200101N005719999999Y0099001N1-00701-01501999999ADDMA1100711999999REMMET047METAR ENBL 051420Z 01011KT CAVOK M07/M15 Q1007;
0074010015999992010010514504+61383+005867FM-15+0327ENBL V0200501N002119999999Y0099001N1-00801-01701999999ADDMA1100811999999REMMET047METAR ENBL 051450Z 05004KT CAVOK M08/M17 Q1008;
0074010015999992010010515204+61383+005867FM-15+0327ENBL V0200101N002619999999Y0099001N1-01001-01601999999ADDMA1100811999999REMMET047METAR ENBL 051520Z 01005KT CAVOK M10/M16 Q1008;
0074010015999992010010516204+61383+005867FM-15+0327ENBL V0200301N002619999999Y0099001N1-00901-01601999999ADDMA1100811999999REMMET047METAR ENBL 051620Z 03005KT CAVOK M09/M16 Q1008;
0074010015999992010010516504+61383+005867FM-15+0327ENBL V0200301N002619999999Y0099001N1-00901-01601999999ADDMA1100911999999REMMET047METAR ENBL 051650Z 03005KT CAVOK M09/M16 Q1009;
0074010015999992010010518504+61383+005867FM-15+0327ENBL V0209999V001519999999Y0099001N1-01001-01701999999ADDMA1100911999999REMMET047METAR ENBL 051850Z VRB03KT CAVOK M10/M17 Q1009;
0074010015999992010010519504+61383+005867FM-15+0327ENBL V0209999V001519999999Y0099001N1-01001-01701999999ADDMA1100911999999REMMET047METAR ENBL 051950Z VRB03KT CAVOK M10/M17 Q1009;
0074010015999992010010520504+61383+005867FM-15+0327ENBL V0200301N002619999999Y0099001N1-01101-01701999999ADDMA1100911999999REMMET047METAR ENBL 052050Z 03005KT CAVOK M11/M17 Q1009;
0074010015999992010010521504+61383+005867FM-15+0327ENBL V0200301N001519999999Y0099001N1-01101-01701999999ADDMA1100911999999REMMET047METAR ENBL 052150Z 03003KT CAVOK M11/M17 Q1009;
0074010015999992010010604504+61383+005867FM-15+0327ENBL V0203601N001519999999Y0099001N1-01301-01901999999ADDMA1100911999999REMMET047METAR ENBL 060450Z 36003KT CAVOK M13/M19 Q1009;
0074010015999992010010605504+61383+005867FM-15+0327ENBL V0202701N001519999999Y0099001N1-01401-01901999999ADDMA1100911999999REMMET047METAR ENBL 060550Z 27003KT CAVOK M14/M19 Q1009;
0074010015999992010010606504+61383+005867FM-15+0327ENBL V0203201N002119999999Y0099001N1-01401-01901999999ADDMA1100911999999REMMET047METAR ENBL 060650Z 32004KT CAVOK M14/M19 Q1009;
0074010015999992010010607204+61383+005867FM-15+0327ENBL V0203101N001519999999Y0099001N1-01401-01901999999ADDMA1100911999999REMMET047METAR ENBL 060720Z 31003KT CAVOK M14/M19 Q1009;
0074010015999992010010607504+61383+005867FM-15+0327ENBL V0203101N001519999999Y0099001N1-01401-01901999999ADDMA1100911999999REMMET047METAR ENBL 060750Z 31003KT CAVOK M14/M19 Q1009;
0074010015999992010010608204+61383+005867FM-15+0327ENBL V0203001N002619999999Y0099001N1-01301-01901999999ADDMA1100911999999REMMET047METAR ENBL 060820Z 30005KT CAVOK M13/M19 Q1009;
0074010015999992010010608504+61383+005867FM-15+0327ENBL V0202901N002119999999Y0099001N1-01401-01901999999ADDMA1100911999999REMMET047METAR ENBL 060850Z 29004KT CAVOK M14/M19 Q1009;
0074010015999992010010609204+61383+005867FM-15+0327ENBL V0203101N001519999999Y0099001N1-01301-01801999999ADDMA1100911999999REMMET047METAR ENBL 060920Z 31003KT CAVOK M13/M18 Q1009;
0074010015999992010010609504+61383+005867FM-15+0327ENBL V0203001N002119999999Y0099001N1-01201-01801999999ADDMA1101021999999REMMET047METAR ENBL 060950Z 30004KT CAVOK M12/M18 Q1010;
0074010015999992010010610504+61383+005867FM-15+0327ENBL V0202901N002119999999Y0099001N1-01001-01801999999ADDMA1100911999999REMMET047METAR ENBL 061050Z 29004KT CAVOK M10/M18 Q1009;
0074010015999992010010611204+61383+005867FM-15+0327ENBL V0202501N001019999999Y0099001N1-01001-01701999999ADDMA1100911999999REMMET047METAR ENBL 061120Z 25002KT CAVOK M10/M17 Q1009;
0074010015999992010010612504+61383+005867FM-15+0327ENBL V0202801N002119999999Y0099001N1-01001-01501999999ADDMA1100911999999REMMET047METAR ENBL 061250Z 28004KT CAVOK M10/M15 Q1009;
0145010015999992010010613504+61383+005867FM-15+0327ENBL V0203001N002112200019N0112651N1-01101-01601999999ADDGA1021+012001999GA2041+018001999GF104991999999999999999999MA1100911999999REMMET060METAR ENBL 061350Z 30004KT 9999 FEW040 SCT060 M11/M16 Q1009;
0145010015999992010010614204+61383+005867FM-15+0327ENBL V0203201N002112200019N0112651N1-01101-01601999999ADDGA1021+012001999GA2041+018001999GF104991999999999999999999MA1100911999999REMMET060METAR ENBL 061420Z 32004KT 9999 FEW040 SCT060 M11/M16 Q1009;
0145010015999992010010614504+61383+005867FM-15+0327ENBL V0203201N001512200019N0112651N1-01101-01601999999ADDGA1021+012001999GA2041+018001999GF104991999999999999999999MA1100911999999REMMET060METAR ENBL 061450Z 32003KT 9999 FEW040 SCT060 M11/M16 Q1009;
0145010015999992010010615204+61383+005867FM-15+0327ENBL V0203201N001512200019N0112651N1-01101-01601999999ADDGA1021+012001999GA2041+018001999GF104991999999999999999999MA1100911999999REMMET060METAR ENBL 061520Z 32003KT 9999 FEW040 SCT060 M11/M16 Q1009;
0145010015999992010010615504+61383+005867FM-15+0327ENBL V0203201N002112200019N0112651N1-01001-01601999999ADDGA1021+013501999GA2041+018001999GF104991999999999999999999MA1100911999999REMMET060METAR ENBL 061550Z 32004KT 9999 FEW045 SCT065 M10/M16 Q1009;
0168010015999992010010616204+61383+005867FM-15+0327ENBL V0203001N00151018001CN0112651N1-01001-01601999999ADDGA1021+015001999GA2041+018001999GA3071+024001999GF107991999999999999999999MA1101021999999REMMET067METAR ENBL 061620Z 30003KT 9999 FEW052 SCT065 BKN087 M10/M16 Q1010;
0168010015999992010010616504+61383+005867FM-15+0327ENBL V0203101N00151018001CN0112651N1-01101-01601999999ADDGA1021+015001999GA2041+018001999GA3071+024001999GF107991999999999999999999MA1101021999999REMMET067METAR ENBL 061650Z 31003KT 9999 FEW052 SCT065 BKN087 M11/M16 Q1010;
0168010015999992010010617204+61383+005867FM-15+0327ENBL V0203101N00151018001CN0112651N1-01101-01601999999ADDGA1021+011401999GA2041+018001999GA3071+024001999GF107991999999999999999999MA1101021999999REMMET067METAR ENBL 061720Z 31003KT 9999 FEW038 SCT065 BKN087 M11/M16 Q1010;
0168010015999992010010617504+61383+005867FM-15+0327ENBL V0203101N00211011101CN0112651N1-01001-01501999999ADDGA1021+008101999GA2041+011101999GA3071+018001999GF107991999999999999999999MA1101021999999REMMET067METAR ENBL 061750Z 31004KT 9999 FEW027 SCT037 BKN068 M10/M15 Q1010;
0168010015999992010010618204+61383+005867FM-15+0327ENBL V0203001N00151011101CN0112651N1-01001-01601999999ADDGA1021+006001999GA2041+011101999GA3071+015001999GF107991999999999999999999MA1101021999999REMMET067METAR ENBL 061820Z 30003KT 9999 FEW020 SCT037 BKN057 M10/M16 Q1010;
0174010015999992010010618504+61383+005867FM-15+0327ENBL V0209999V00101009001CN0112651N1-01001-01501999999ADDGA1021+004801999GA2041+009001999GA3071+015001999GF107991999999999999999999MA1101021999999REMMET073METAR ENBL 061850Z VRB02KT 9999 -SHSN FEW016 SCT030 BKN057 M10/M15 Q1010;
0174010015999992010010619204+61383+005867FM-15+0327ENBL V0202501N00151009001CN0112651N1-01001-01501999999ADDGA1021+004801999GA2041+009001999GA3071+015001999GF107991999999999999999999MA1101021999999REMMET073METAR ENBL 061920Z 25003KT 9999 -SHSN FEW016 SCT030 BKN057 M10/M15 Q1010;
0122010015999992010010619504+61383+005867FM-15+0327ENBL V0202701N001512200019N0112651N1-01001-01601999999ADDGA1021+006601999GF102991999999999999999999MA1101021999999REMMET053METAR ENBL 061950Z 27003KT 9999 FEW022 M10/M16 Q1010;
0122010015999992010010621504+61383+005867FM-15+0327ENBL V0203201N002112200019N0112651N1-01301-01601999999ADDGA1021+006601999GF102991999999999999999999MA1101021999999REMMET053METAR ENBL 062150Z 32004KT 9999 FEW022 M13/M16 Q1010;
0122010015999992010010622204+61383+005867FM-15+0327ENBL V0203001N001512200019N0112651N1-01301-01601999999ADDGA1021+006601999GF102991999999999999999999MA1101081999999REMMET053METAR ENBL 062220Z 30003KT 9999 FEW022 M13/M16 Q1011;
0074010015999992010010704504+61383+005867FM-15+0327ENBL V0203301N001519999999Y0099001N1-01501-01701999999ADDMA1101191999999REMMET047METAR ENBL 070450Z 33003KT CAVOK M15/M17 Q1012;
0074010015999992010010705504+61383+005867FM-15+0327ENBL V0203301N002119999999Y0099001N1-01401-01701999999ADDMA1101191999999REMMET047METAR ENBL 070550Z 33004KT CAVOK M14/M17 Q1012;
0074010015999992010010706504+61383+005867FM-15+0327ENBL V0203401N001519999999Y0099001N1-01501-01801999999ADDMA1101191999999REMMET047METAR ENBL 070650Z 34003KT CAVOK M15/M18 Q1012;
0074010015999992010010707504+61383+005867FM-15+0327ENBL V0203201N002119999999Y0099001N1-01601-01801999999ADDMA1101191999999REMMET047METAR ENBL 070750Z 32004KT CAVOK M16/M18 Q1012;
0074010015999992010010708504+61383+005867FM-15+0327ENBL V0202701N002119999999Y0099001N1-01601-01901999999ADDMA1101291999999REMMET047METAR ENBL 070850Z 27004KT CAVOK M16/M19 Q1013;
0074010015999992010010709504+61383+005867FM-15+0327ENBL V0202801N002119999999Y0099001N1-01501-01801999999ADDMA1101291999999REMMET047METAR ENBL 070950Z 28004KT CAVOK M15/M18 Q1013;
0074010015999992010010710204+61383+005867FM-15+0327ENBL V0202801N002119999999Y0099001N1-01501-01801999999ADDMA1101391999999REMMET047METAR ENBL 071020Z 28004KT CAVOK M15/M18 Q1014;
0074010015999992010010710504+61383+005867FM-15+0327ENBL V0203201N002119999999Y0099001N1-01401-01701999999ADDMA1101391999999REMMET047METAR ENBL 071050Z 32004KT CAVOK M14/M17 Q1014;
0074010015999992010010711504+61383+005867FM-15+0327ENBL V0209999V000519999999Y0099001N1-01201-01701999999ADDMA1101391999999REMMET047METAR ENBL 071150Z VRB01KT CAVOK M12/M17 Q1014;
0074010015999992010010712504+61383+005867FM-15+0327ENBL V0202501N001019999999Y0099001N1-01201-01801999999ADDMA1101391999999REMMET047METAR ENBL 071250Z 25002KT CAVOK M12/M18 Q1014;
0074010015999992010010713204+61383+005867FM-15+0327ENBL V0203201N001019999999Y0099001N1-01201-01801999999ADDMA1101391999999REMMET047METAR ENBL 071320Z 32002KT CAVOK M12/M18 Q1014;
0074010015999992010010713504+61383+005867FM-15+0327ENBL V0202701N001519999999Y0099001N1-01301-01801999999ADDMA1101491999999REMMET047METAR ENBL 071350Z 27003KT CAVOK M13/M18 Q1015;
0074010015999992010010714504+61383+005867FM-15+0327ENBL V0209999V000519999999Y0099001N1-01401-01901999999ADDMA1101491999999REMMET047METAR ENBL 071450Z VRB01KT CAVOK M14/M19 Q1015;
0074010015999992010010715204+61383+005867FM-15+0327ENBL V0203001N001519999999Y0099001N1-01501-01901999999ADDMA1101491999999REMMET047METAR ENBL 071520Z 30003KT CAVOK M15/M19 Q1015;
0074010015999992010010715504+61383+005867FM-15+0327ENBL V0203101N002119999999Y0099001N1-01501-01901999999ADDMA1101491999999REMMET047METAR ENBL 071550Z 31004KT CAVOK M15/M19 Q1015;
0074010015999992010010716204+61383+005867FM-15+0327ENBL V0203101N002119999999Y0099001N1-01501-01901999999ADDMA1101591999999REMMET047METAR ENBL 071620Z 31004KT CAVOK M15/M19 Q1016;
0074010015999992010010716504+61383+005867FM-15+0327ENBL V0203201N002619999999Y0099001N1-01601-02001999999ADDMA1101591999999REMMET047METAR ENBL 071650Z 32005KT CAVOK M16/M20 Q1016;
0074010015999992010010717504+61383+005867FM-15+0327ENBL V0203201N001519999999Y0099001N1-01601-02001999999ADDMA1101591999999REMMET047METAR ENBL 071750Z 32003KT CAVOK M16/M20 Q1016;
0074010015999992010010718204+61383+005867FM-15+0327ENBL V0203201N001519999999Y0099001N1-01501-02001999999ADDMA1101691999999REMMET047METAR ENBL 071820Z 32003KT CAVOK M15/M20 Q1017;
0074010015999992010010718504+61383+005867FM-15+0327ENBL V0203201N002119999999Y0099001N1-01501-01901999999ADDMA1101691999999REMMET047METAR ENBL 071850Z 32004KT CAVOK M15/M19 Q1017;
0074010015999992010010719204+61383+005867FM-15+0327ENBL V0203101N001019999999Y0099001N1-01601-02001999999ADDMA1101691999999REMMET047METAR ENBL 071920Z 31002KT CAVOK M16/M20 Q1017;
0074010015999992010010719504+61383+005867FM-15+0327ENBL V0203101N001519999999Y0099001N1-01601-02001999999ADDMA1101691999999REMMET047METAR ENBL 071950Z 31003KT CAVOK M16/M20 Q1017;
0074010015999992010010720204+61383+005867FM-15+0327ENBL V0203201N001519999999Y0099001N1-01601-02001999999ADDMA1101801999999REMMET047METAR ENBL 072020Z 32003KT CAVOK M16/M20 Q1018;
0074010015999992010010720504+61383+005867FM-15+0327ENBL V0203601N001519999999Y0099001N1-01501-02001999999ADDMA1101801999999REMMET047METAR ENBL 072050Z 36003KT CAVOK M15/M20 Q1018;
0074010015999992010010721204+61383+005867FM-15+0327ENBL V0203401N001519999999Y0099001N1-01501-02001999999ADDMA1101801999999REMMET047METAR ENBL 072120Z 34003KT CAVOK M15/M20 Q1018;
0074010015999992010010722204+61383+005867FM-15+0327ENBL V0203401N002119999999Y0099001N1-01601-02001999999ADDMA1101901999999REMMET047METAR ENBL 072220Z 34004KT CAVOK M16/M20 Q1019;
0074010015999992010010804504+61383+005867FM-15+0327ENBL V0202301N002119999999Y0099001N1-01501-02101999999ADDMA1102301999999REMMET047METAR ENBL 080450Z 23004KT CAVOK M15/M21 Q1023;
0074010015999992010010805504+61383+005867FM-15+0327ENBL V0203101N001519999999Y0099001N1-01501-02101999999ADDMA1102301999999REMMET047METAR ENBL 080550Z 31003KT CAVOK M15/M21 Q1023;
0074010015999992010010806504+61383+005867FM-15+0327ENBL V0203101N002119999999Y0099001N1-01601-02101999999ADDMA1102401999999REMMET047METAR ENBL 080650Z 31004KT CAVOK M16/M21 Q1024;
0074010015999992010010807204+61383+005867FM-15+0327ENBL V0203201N002119999999Y0099001N1-01401-02101999999ADDMA1102511999999REMMET047METAR ENBL 080720Z 32004KT CAVOK M14/M21 Q1025;
0074010015999992010010807504+61383+005867FM-15+0327ENBL V0203001N001519999999Y0099001N1-01601-02101999999ADDMA1102511999999REMMET047METAR ENBL 080750Z 30003KT CAVOK M16/M21 Q1025;
0074010015999992010010808204+61383+005867FM-15+0327ENBL V0203001N001519999999Y0099001N1-01501-02101999999ADDMA1102511999999REMMET047METAR ENBL 080820Z 30003KT CAVOK M15/M21 Q1025;
0074010015999992010010808504+61383+005867FM-15+0327ENBL V0202901N002119999999Y0099001N1-01501-02201999999ADDMA1102611999999REMMET047METAR ENBL 080850Z 29004KT CAVOK M15/M22 Q1026;
0074010015999992010010809504+61383+005867FM-15+0327ENBL V0203001N002119999999Y0099001N1-01601-02101999999ADDMA1102611999999REMMET047METAR ENBL 080950Z 30004KT CAVOK M16/M21 Q1026;
0074010015999992010010810204+61383+005867FM-15+0327ENBL V0203001N002119999999Y0099001N1-01401-02001999999ADDMA1102711999999REMMET047METAR ENBL 081020Z 30004KT CAVOK M14/M20 Q1027;
0074010015999992010010810504+61383+005867FM-15+0327ENBL V0202801N002119999999Y0099001N1-01301-02101999999ADDMA1102711999999REMMET047METAR ENBL 081050Z 28004KT CAVOK M13/M21 Q1027;
0074010015999992010010811504+61383+005867FM-15+0327ENBL V0202801N002119999999Y0099001N1-01201-02001999999ADDMA1102711999999REMMET047METAR ENBL 081150Z 28004KT CAVOK M12/M20 Q1027;
0074010015999992010010812504+61383+005867FM-15+0327ENBL V0202801N001019999999Y0099001N1-01201-02001999999ADDMA1102711999999REMMET047METAR ENBL 081250Z 28002KT CAVOK M12/M20 Q1027;
0074010015999992010010813504+61383+005867FM-15+0327ENBL V0202701N001519999999Y0099001N1-01201-02001999999ADDMA1102811999999REMMET047METAR ENBL 081350Z 27003KT CAVOK M12/M20 Q1028;
0074010015999992010010814504+61383+005867FM-15+0327ENBL V0203201N002119999999Y0099001N1-01401-02001999999ADDMA1102911999999REMMET047METAR ENBL 081450Z 32004KT CAVOK M14/M20 Q1029;
0074010015999992010010815504+61383+005867FM-15+0327ENBL V0202801N002119999999Y0099001N1-01401-02001999999ADDMA1102911999999REMMET047METAR ENBL 081550Z 28004KT CAVOK M14/M20 Q1029;
0074010015999992010010816204+61383+005867FM-15+0327ENBL V0203001N002619999999Y0099001N1-01401-02001999999ADDMA1102911999999REMMET047METAR ENBL 081620Z 30005KT CAVOK M14/M20 Q1029;
0074010015999992010010816504+61383+005867FM-15+0327ENBL V0202901N002619999999Y0099001N1-01401-02101999999ADDMA1103011999999REMMET047METAR ENBL 081650Z 29005KT CAVOK M14/M21 Q1030;
0074010015999992010010817504+61383+005867FM-15+0327ENBL V0209999V001019999999Y0099001N1-01401-02101999999ADDMA1103011999999REMMET047METAR ENBL 081750Z VRB02KT CAVOK M14/M21 Q1030;
0074010015999992010010818204+61383+005867FM-15+0327ENBL V0203001N002119999999Y0099001N1-01501-02001999999ADDMA1103011999999REMMET047METAR ENBL 081820Z 30004KT CAVOK M15/M20 Q1030;
0074010015999992010010818504+61383+005867FM-15+0327ENBL V0203001N001519999999Y0099001N1-01401-02101999999ADDMA1103121999999REMMET047METAR ENBL 081850Z 30003KT CAVOK M14/M21 Q1031;
0074010015999992010010819504+61383+005867FM-15+0327ENBL V0203101N002119999999Y0099001N1-01401-02101999999ADDMA1103121999999REMMET047METAR ENBL 081950Z 31004KT CAVOK M14/M21 Q1031;
0074010015999992010010820204+61383+005867FM-15+0327ENBL V0203101N002119999999Y0099001N1-01401-02101999999ADDMA1103181999999REMMET047METAR ENBL 082020Z 31004KT CAVOK M14/M21 Q1032;
0074010015999992010010820504+61383+005867FM-15+0327ENBL V0203001N001519999999Y0099001N1-01401-02101999999ADDMA1103181999999REMMET047METAR ENBL 082050Z 30003KT CAVOK M14/M21 Q1032;
0074010015999992010010821204+61383+005867FM-15+0327ENBL V0202901N002119999999Y0099001N1-01401-02101999999ADDMA1103181999999REMMET047METAR ENBL 082120Z 29004KT CAVOK M14/M21 Q1032;
0074010015999992010010821504+61383+005867FM-15+0327ENBL V0203001N002119999999Y0099001N1-01401-02101999999ADDMA1103181999999REMMET047METAR ENBL 082150Z 30004KT CAVOK M14/M21 Q1032;
0074010015999992010010906504+61383+005867FM-15+0327ENBL V0203001N001519999999Y0099001N1-01301-02001999999ADDMA1103491999999REMMET047METAR ENBL 090650Z 30003KT CAVOK M13/M20 Q1035;
0074010015999992010010907204+61383+005867FM-15+0327ENBL V0203101N001519999999Y0099001N1-01301-02001999999ADDMA1103491999999REMMET047METAR ENBL 090720Z 31003KT CAVOK M13/M20 Q1035;
0074010015999992010010907504+61383+005867FM-15+0327ENBL V0203001N002119999999Y0099001N1-01201-02101999999ADDMA1103491999999REMMET047METAR ENBL 090750Z 30004KT CAVOK M12/M21 Q1035;
0074010015999992010010908204+61383+005867FM-15+0327ENBL V0203001N001519999999Y0099001N1-01201-02001999999ADDMA1103591999999REMMET047METAR ENBL 090820Z 30003KT CAVOK M12/M20 Q1036;
0074010015999992010010908504+61383+005867FM-15+0327ENBL V0203201N002119999999Y0099001N1-01201-02101999999ADDMA1103591999999REMMET047METAR ENBL 090850Z 32004KT CAVOK M12/M21 Q1036;
0074010015999992010010909204+61383+005867FM-15+0327ENBL V0203101N002119999999Y0099001N1-01201-02001999999ADDMA1103591999999REMMET047METAR ENBL 090920Z 31004KT CAVOK M12/M20 Q1036;
0074010015999992010010909504+61383+005867FM-15+0327ENBL V0203001N001519999999Y0099001N1-01101-02001999999ADDMA1103591999999REMMET047METAR ENBL 090950Z 30003KT CAVOK M11/M20 Q1036;
0074010015999992010010910204+61383+005867FM-15+0327ENBL V0202801N001519999999Y0099001N1-00901-02001999999ADDMA1103691999999REMMET047METAR ENBL 091020Z 28003KT CAVOK M09/M20 Q1037;
0074010015999992010010910504+61383+005867FM-15+0327ENBL V0202901N001519999999Y0099001N1-00801-02001999999ADDMA1103691999999REMMET047METAR ENBL 091050Z 29003KT CAVOK M08/M20 Q1037;
0074010015999992010010911204+61383+005867FM-15+0327ENBL V0209999V001019999999Y0099001N1-00801-01901999999ADDMA1103691999999REMMET047METAR ENBL 091120Z VRB02KT CAVOK M08/M19 Q1037;
0074010015999992010010911504+61383+005867FM-15+0327ENBL V0202801N001519999999Y0099001N1-00701-02001999999ADDMA1103691999999REMMET047METAR ENBL 091150Z 28003KT CAVOK M07/M20 Q1037;
0074010015999992010010912204+61383+005867FM-15+0327ENBL V0209999V001019999999Y0099001N1-00601-02001999999ADDMA1103691999999REMMET047METAR ENBL 091220Z VRB02KT CAVOK M06/M20 Q1037;
0074010015999992010010912504+61383+005867FM-15+0327ENBL V0203401N001519999999Y0099001N1-00601-02001999999ADDMA1103691999999REMMET047METAR ENBL 091250Z 34003KT CAVOK M06/M20 Q1037;
0074010015999992010010913204+61383+005867FM-15+0327ENBL V0209999V000519999999Y0099001N1-00501-02001999999ADDMA1103691999999REMMET047METAR ENBL 091320Z VRB01KT CAVOK M05/M20 Q1037;
0074010015999992010010913504+61383+005867FM-15+0327ENBL V0203401N002119999999Y0099001N1-00501-01701999999ADDMA1103691999999REMMET047METAR ENBL 091350Z 34004KT CAVOK M05/M17 Q1037;
0074010015999992010010914504+61383+005867FM-15+0327ENBL V0209999V000519999999Y0099001N1-00901-01801999999ADDMA1103691999999REMMET047METAR ENBL 091450Z VRB01KT CAVOK M09/M18 Q1037;
0074010015999992010011011204+61383+005867FM-15+0327ENBL V0209999V001019999999Y0099001N1-00601-01701999999ADDMA1103691999999REMMET047METAR ENBL 101120Z VRB02KT CAVOK M06/M17 Q1037;
0074010015999992010011011504+61383+005867FM-15+0327ENBL V0209999V001519999999Y0099001N1-00601-01701999999ADDMA1103591999999REMMET047METAR ENBL 101150Z VRB03KT CAVOK M06/M17 Q1036;
0074010015999992010011012204+61383+005867FM-15+0327ENBL V0200101N002119999999Y0099001N1-00601-01701999999ADDMA1103591999999REMMET047METAR ENBL 101220Z 01004KT CAVOK M06/M17 Q1036;
0074010015999992010011012504+61383+005867FM-15+0327ENBL V0200401N002119999999Y0099001N1-00501-01701999999ADDMA1103591999999REMMET047METAR ENBL 101250Z 04004KT CAVOK M05/M17 Q1036;
0074010015999992010011013204+61383+005867FM-15+0327ENBL V0200601N003119999999Y0099001N1-00501-01701999999ADDMA1103591999999REMMET047METAR ENBL 101320Z 06006KT CAVOK M05/M17 Q1036;
0075010015999992010011013504+61383+005867FM-15+0327ENBL V0200501N002619999999Y0099001N1-00501-01701999999ADDMA1103491999999REMMET048METAR ENBL 101350Z 050005KT CAVOK M05/M17 Q1035;
0074010015999992010011014204+61383+005867FM-15+0327ENBL V0200501N003619999999Y0099001N1-00601-01701999999ADDMA1103491999999REMMET047METAR ENBL 101420Z 05007KT CAVOK M06/M17 Q1035;
0074010015999992010011014504+61383+005867FM-15+0327ENBL V0200601N002619999999Y0099001N1-00601-01701999999ADDMA1103491999999REMMET047METAR ENBL 101450Z 06005KT CAVOK M06/M17 Q1035;
0074010015999992010011015204+61383+005867FM-15+0327ENBL V0200501N002119999999Y0099001N1-00701-01701999999ADDMA1103491999999REMMET047METAR ENBL 101520Z 05004KT CAVOK M07/M17 Q1035;
0074010015999992010011015504+61383+005867FM-15+0327ENBL V0200201N003119999999Y0099001N1-00601-01701999999ADDMA1103491999999REMMET047METAR ENBL 101550Z 02006KT CAVOK M06/M17 Q1035;
0074010015999992010011016204+61383+005867FM-15+0327ENBL V0200401N002619999999Y0099001N1-00601-01701999999ADDMA1103491999999REMMET047METAR ENBL 101620Z 04005KT CAVOK M06/M17 Q1035;
0074010015999992010011016504+61383+005867FM-15+0327ENBL V0200401N003119999999Y0099001N1-00601-01701999999ADDMA1103491999999REMMET047METAR ENBL 101650Z 04006KT CAVOK M06/M17 Q1035;
0075010015999992010011017204+61383+005867FM-15+0327ENBL V0200401N003119999999Y0099001N1-00501-01801999999ADDMA1103491999999REMMET048METAR ENBL 101720Z 040006KT CAVOK M05/M18 Q1035;
0074010015999992010011017504+61383+005867FM-15+0327ENBL V0200401N002619999999Y0099001N1-00601-01701999999ADDMA1103491999999REMMET047METAR ENBL 101750Z 04005KT CAVOK M06/M17 Q1035;
0074010015999992010011018504+61383+005867FM-15+0327ENBL V0200601N003119999999Y0099001N1-00601-01701999999ADDMA1103391999999REMMET047METAR ENBL 101850Z 06006KT CAVOK M06/M17 Q1034;
0074010015999992010011019204+61383+005867FM-15+0327ENBL V0200401N002619999999Y0099001N1-00601-01701999999ADDMA1103391999999REMMET047METAR ENBL 101920Z 04005KT CAVOK M06/M17 Q1034;
0074010015999992010011019504+61383+005867FM-15+0327ENBL V0200601N003119999999Y0099001N1-00501-01801999999ADDMA1103391999999REMMET047METAR ENBL 101950Z 06006KT CAVOK M05/M18 Q1034;
0074010015999992010011020204+61383+005867FM-15+0327ENBL V0200501N003119999999Y0099001N1-00601-01701999999ADDMA1103391999999REMMET047METAR ENBL 102020Z 05006KT CAVOK M06/M17 Q1034;
0074010015999992010011020504+61383+005867FM-15+0327ENBL V0200601N003119999999Y0099001N1-00601-01701999999ADDMA1103391999999REMMET047METAR ENBL 102050Z 06006KT CAVOK M06/M17 Q1034;
0074010015999992010011021204+61383+005867FM-15+0327ENBL V0200701N001019999999Y0099001N1-00501-01801999999ADDMA1103391999999REMMET047METAR ENBL 102120Z 07002KT CAVOK M05/M18 Q1034;
0074010015999992010011104504+61383+005867FM-15+0327ENBL V0200301N001019999999Y0099001N1-00501-01801999999ADDMA1103181999999REMMET047METAR ENBL 110450Z 03002KT CAVOK M05/M18 Q1032;
0074010015999992010011105204+61383+005867FM-15+0327ENBL V0200401N001519999999Y0099001N1-00401-01801999999ADDMA1103121999999REMMET047METAR ENBL 110520Z 04003KT CAVOK M04/M18 Q1031;
0074010015999992010011105504+61383+005867FM-15+0327ENBL V0200401N002119999999Y0099001N1-00501-01801999999ADDMA1103121999999REMMET047METAR ENBL 110550Z 04004KT CAVOK M05/M18 Q1031;
0074010015999992010011106204+61383+005867FM-15+0327ENBL V0200501N002119999999Y0099001N1-00401-01801999999ADDMA1103121999999REMMET047METAR ENBL 110620Z 05004KT CAVOK M04/M18 Q1031;
0074010015999992010011106504+61383+005867FM-15+0327ENBL V0200501N003119999999Y0099001N1-00401-01801999999ADDMA1103121999999REMMET047METAR ENBL 110650Z 05006KT CAVOK M04/M18 Q1031;
0074010015999992010011107204+61383+005867FM-15+0327ENBL V0209999V000519999999Y0099001N1-00501-01801999999ADDMA1103121999999REMMET047METAR ENBL 110720Z VRB01KT CAVOK M05/M18 Q1031;
0074010015999992010011107504+61383+005867FM-15+0327ENBL V0203201N001519999999Y0099001N1-00601-01801999999ADDMA1103121999999REMMET047METAR ENBL 110750Z 32003KT CAVOK M06/M18 Q1031;
0074010015999992010011108204+61383+005867FM-15+0327ENBL V0200101N001019999999Y0099001N1-00501-01701999999ADDMA1103121999999REMMET047METAR ENBL 110820Z 01002KT CAVOK M05/M17 Q1031;
0074010015999992010011109204+61383+005867FM-15+0327ENBL V0209999V000519999999Y0099001N1-00401-01801999999ADDMA1103121999999REMMET047METAR ENBL 110920Z VRB01KT CAVOK M04/M18 Q1031;
0074010015999992010011109504+61383+005867FM-15+0327ENBL V0202901N001019999999Y0099001N1-00601-01701999999ADDMA1103121999999REMMET047METAR ENBL 110950Z 29002KT CAVOK M06/M17 Q1031;
0074010015999992010011110504+61383+005867FM-15+0327ENBL V0203001N001019999999Y0099001N1-00301-01701999999ADDMA1103011999999REMMET047METAR ENBL 111050Z 30002KT CAVOK M03/M17 Q1030;
0074010015999992010011111204+61383+005867FM-15+0327ENBL V0203001N001019999999Y0099001N1-00201-01601999999ADDMA1103011999999REMMET047METAR ENBL 111120Z 30002KT CAVOK M02/M16 Q1030;
0074010015999992010011111504+61383+005867FM-15+0327ENBL V0209999V000519999999Y0099001N1-00301-01601999999ADDMA1103011999999REMMET047METAR ENBL 111150Z VRB01KT CAVOK M03/M16 Q1030;
0074010015999992010011112204+61383+005867FM-15+0327ENBL V0209999V000519999999Y0099001N1-00201-01701999999ADDMA1102911999999REMMET047METAR ENBL 111220Z VRB01KT CAVOK M02/M17 Q1029;
0074010015999992010011112504+61383+005867FM-15+0327ENBL V0203001N001519999999Y0099001N1-00201-01601999999ADDMA1102911999999REMMET047METAR ENBL 111250Z 30003KT CAVOK M02/M16 Q1029;
0074010015999992010011113204+61383+005867FM-15+0327ENBL V0202601N001519999999Y0099001N1-00201-01501999999ADDMA1102911999999REMMET047METAR ENBL 111320Z 26003KT CAVOK M02/M15 Q1029;
0074010015999992010011113504+61383+005867FM-15+0327ENBL V0203201N001019999999Y0099001N1-00201-01601999999ADDMA1102911999999REMMET047METAR ENBL 111350Z 32002KT CAVOK M02/M16 Q1029;
0074010015999992010011114204+61383+005867FM-15+0327ENBL V0203101N001519999999Y0099001N1-00301-01601999999ADDMA1102911999999REMMET047METAR ENBL 111420Z 31003KT CAVOK M03/M16 Q1029;
0074010015999992010011114504+61383+005867FM-15+0327ENBL V0209999V001019999999Y0099001N1-00401-01601999999ADDMA1102811999999REMMET047METAR ENBL 111450Z VRB02KT CAVOK M04/M16 Q1028;
0074010015999992010011115204+61383+005867FM-15+0327ENBL V0203401N001519999999Y0099001N1-00401-01601999999ADDMA1102811999999REMMET047METAR ENBL 111520Z 34003KT CAVOK M04/M16 Q1028;
0074010015999992010011115504+61383+005867FM-15+0327ENBL V0203301N001519999999Y0099001N1-00401-01501999999ADDMA1102811999999REMMET047METAR ENBL 111550Z 33003KT CAVOK M04/M15 Q1028;
0074010015999992010011116204+61383+005867FM-15+0327ENBL V0203101N001519999999Y0099001N1-00401-01601999999ADDMA1102811999999REMMET047METAR ENBL 111620Z 31003KT CAVOK M04/M16 Q1028;
0074010015999992010011116504+61383+005867FM-15+0327ENBL V0203201N002119999999Y0099001N1-00501-01501999999ADDMA1102811999999REMMET047METAR ENBL 111650Z 32004KT CAVOK M05/M15 Q1028;
0074010015999992010011117204+61383+005867FM-15+0327ENBL V0203301N002119999999Y0099001N1-00501-01601999999ADDMA1102811999999REMMET047METAR ENBL 111720Z 33004KT CAVOK M05/M16 Q1028;
0074010015999992010011117504+61383+005867FM-15+0327ENBL V0203201N002119999999Y0099001N1-00501-01501999999ADDMA1102811999999REMMET047METAR ENBL 111750Z 32004KT CAVOK M05/M15 Q1028;
0074010015999992010011118204+61383+005867FM-15+0327ENBL V0203301N001519999999Y0099001N1-00501-01601999999ADDMA1102811999999REMMET047METAR ENBL 111820Z 33003KT CAVOK M05/M16 Q1028;
0074010015999992010011118504+61383+005867FM-15+0327ENBL V0203201N002119999999Y0099001N1-00501-01501999999ADDMA1102811999999REMMET047METAR ENBL 111850Z 32004KT CAVOK M05/M15 Q1028;
0074010015999992010011119204+61383+005867FM-15+0327ENBL V0203101N002119999999Y0099001N1-00501-01501999999ADDMA1102811999999REMMET047METAR ENBL 111920Z 31004KT CAVOK M05/M15 Q1028;
0074010015999992010011119504+61383+005867FM-15+0327ENBL V0203001N001519999999Y0099001N1-00501-01501999999ADDMA1102811999999REMMET047METAR ENBL 111950Z 30003KT CAVOK M05/M15 Q1028;
0074010015999992010011120204+61383+005867FM-15+0327ENBL V0203201N002119999999Y0099001N1-00501-01501999999ADDMA1102711999999REMMET047METAR ENBL 112020Z 32004KT CAVOK M05/M15 Q1027;
0074010015999992010011121204+61383+005867FM-15+0327ENBL V0203101N001519999999Y0099001N1-00501-01501999999ADDMA1102711999999REMMET047METAR ENBL 112120Z 31003KT CAVOK M05/M15 Q1027;
0074010015999992010011121504+61383+005867FM-15+0327ENBL V0203101N001519999999Y0099001N1-00501-01501999999ADDMA1102711999999REMMET047METAR ENBL 112150Z 31003KT CAVOK M05/M15 Q1027;
0074010015999992010011122204+61383+005867FM-15+0327ENBL V0203101N001519999999Y0099001N1-00401-01501999999ADDMA1102711999999REMMET047METAR ENBL 112220Z 31003KT CAVOK M04/M15 Q1027;
0074010015999992010011204504+61383+005867FM-15+0327ENBL V0203201N001019999999Y0099001N1-00401-01401999999ADDMA1102511999999REMMET047METAR ENBL 120450Z 32002KT CAVOK M04/M14 Q1025;
0074010015999992010011205204+61383+005867FM-15+0327ENBL V0203301N002119999999Y0099001N1-00401-01301999999ADDMA1102511999999REMMET047METAR ENBL 120520Z 33004KT CAVOK M04/M13 Q1025;
0074010015999992010011205504+61383+005867FM-15+0327ENBL V0203301N002619999999Y0099001N1-00401-01301999999ADDMA1102511999999REMMET047METAR ENBL 120550Z 33005KT CAVOK M04/M13 Q1025;
0074010015999992010011206204+61383+005867FM-15+0327ENBL V0203401N001519999999Y0099001N1-00401-01301999999ADDMA1102511999999REMMET047METAR ENBL 120620Z 34003KT CAVOK M04/M13 Q1025;
0074010015999992010011206504+61383+005867FM-15+0327ENBL V0203301N002119999999Y0099001N1-00501-01301999999ADDMA1102401999999REMMET047METAR ENBL 120650Z 33004KT CAVOK M05/M13 Q1024;
0074010015999992010011207204+61383+005867FM-15+0327ENBL V0203601N001019999999Y0099001N1-00301-01301999999ADDMA1102401999999REMMET047METAR ENBL 120720Z 36002KT CAVOK M03/M13 Q1024;
0074010015999992010011207504+61383+005867FM-15+0327ENBL V0203401N002119999999Y0099001N1-00301-01301999999ADDMA1102401999999REMMET047METAR ENBL 120750Z 34004KT CAVOK M03/M13 Q1024;
0074010015999992010011208204+61383+005867FM-15+0327ENBL V0200201N001019999999Y0099001N1-00301-01301999999ADDMA1102401999999REMMET047METAR ENBL 120820Z 02002KT CAVOK M03/M13 Q1024;
0074010015999992010011208504+61383+005867FM-15+0327ENBL V0203401N001019999999Y0099001N1-00301-01201999999ADDMA1102401999999REMMET047METAR ENBL 120850Z 34002KT CAVOK M03/M12 Q1024;
0074010015999992010011209504+61383+005867FM-15+0327ENBL V0203601N001519999999Y0099001N1-00301-01301999999ADDMA1102401999999REMMET047METAR ENBL 120950Z 36003KT CAVOK M03/M13 Q1024;
0073010015999992010011210504+61383+005867FM-15+0327ENBL V0209999V001019999999Y0099001N1+00001-01101999999ADDMA1102301999999REMMET046METAR ENBL 121050Z VRB02KT CAVOK 00/M11 Q1023;
0073010015999992010011211204+61383+005867FM-15+0327ENBL V0209999C000019999999Y0099001N1+00001-01101999999ADDMA1102301999999REMMET046METAR ENBL 121120Z 00000KT CAVOK 00/M11 Q1023;
0073010015999992010011211504+61383+005867FM-15+0327ENBL V0209999V000519999999Y0099001N1+00101-01101999999ADDMA1102301999999REMMET046METAR ENBL 121150Z VRB01KT CAVOK 01/M11 Q1023;
0073010015999992010011212204+61383+005867FM-15+0327ENBL V0209999V000519999999Y0099001N1+00101-01001999999ADDMA1102201999999REMMET046METAR ENBL 121220Z VRB01KT CAVOK 01/M10 Q1022;
0073010015999992010011212504+61383+005867FM-15+0327ENBL V0209999V000519999999Y0099001N1+00101-01001999999ADDMA1102201999999REMMET046METAR ENBL 121250Z VRB01KT CAVOK 01/M10 Q1022;
0073010015999992010011213204+61383+005867FM-15+0327ENBL V0209999C000019999999Y0099001N1+00101-00901999999ADDMA1102201999999REMMET046METAR ENBL 121320Z 00000KT CAVOK 01/M09 Q1022;
0073010015999992010011214504+61383+005867FM-15+0327ENBL V0200401N002619999999Y0099001N1+00001-00901999999ADDMA1102101999999REMMET046METAR ENBL 121450Z 04005KT CAVOK 00/M09 Q1021;
0074010015999992010011215204+61383+005867FM-15+0327ENBL V0200401N001519999999Y0099001N1-00101-00901999999ADDMA1102001999999REMMET047METAR ENBL 121520Z 04003KT CAVOK M01/M09 Q1020;
0074010015999992010011215504+61383+005867FM-15+0327ENBL V0200601N002119999999Y0099001N1+00001-00901999999ADDMA1102001999999REMMET047METAR ENBL 121550Z 06004KT CAVOK M00/M09 Q1020;
0074010015999992010011216204+61383+005867FM-15+0327ENBL V0200401N002119999999Y0099001N1-00101-00901999999ADDMA1102001999999REMMET047METAR ENBL 121620Z 04004KT CAVOK M01/M09 Q1020;
0074010015999992010011216504+61383+005867FM-15+0327ENBL V0209999V001019999999Y0099001N1-00201-00901999999ADDMA1102001999999REMMET047METAR ENBL 121650Z VRB02KT CAVOK M02/M09 Q1020;
0074010015999992010011217504+61383+005867FM-15+0327ENBL V0200601N002119999999Y0099001N1+00001-00801999999ADDMA1102001999999REMMET047METAR ENBL 121750Z 06004KT CAVOK M00/M08 Q1020;
0074010015999992010011218204+61383+005867FM-15+0327ENBL V0209999V001019999999Y0099001N1-00201-00901999999ADDMA1102001999999REMMET047METAR ENBL 121820Z VRB02KT CAVOK M02/M09 Q1020;
0074010015999992010011218504+61383+005867FM-15+0327ENBL V0200601N001519999999Y0099001N1-00201-00801999999ADDMA1102001999999REMMET047METAR ENBL 121850Z 06003KT CAVOK M02/M08 Q1020;
0074010015999992010011219204+61383+005867FM-15+0327ENBL V0200301N001519999999Y0099001N1-00101-00801999999ADDMA1102001999999REMMET047METAR ENBL 121920Z 03003KT CAVOK M01/M08 Q1020;
0073010015999992010011219504+61383+005867FM-15+0327ENBL V0200501N001519999999Y0099001N1+00101-00801999999ADDMA1101901999999REMMET046METAR ENBL 121950Z 05003KT CAVOK 01/M08 Q1019;
0074010015999992010011220504+61383+005867FM-15+0327ENBL V0209999V001519999999Y0099001N1-00101-00801999999ADDMA1101901999999REMMET047METAR ENBL 122050Z VRB03KT CAVOK M01/M08 Q1019;
0074010015999992010011221204+61383+005867FM-15+0327ENBL V0203401N002119999999Y0099001N1-00101-00801999999ADDMA1101901999999REMMET047METAR ENBL 122120Z 34004KT CAVOK M01/M08 Q1019;
0074010015999992010011221504+61383+005867FM-15+0327ENBL V0203301N001519999999Y0099001N1+00001-00801999999ADDMA1101801999999REMMET047METAR ENBL 122150Z 33003KT CAVOK M00/M08 Q1018;
0074010015999992010011222204+61383+005867FM-15+0327ENBL V0202901N001519999999Y0099001N1-00101-00801999999ADDMA1101801999999REMMET047METAR ENBL 122220Z 29003KT CAVOK M01/M08 Q1018;
0074010015999992010011304504+61383+005867FM-15+0327ENBL V0203501N001519999999Y0099001N1-00201-00801999999ADDMA1101691999999REMMET047METAR ENBL 130450Z 35003KT CAVOK M02/M08 Q1017;
0074010015999992010011305504+61383+005867FM-15+0327ENBL V0209999V000519999999Y0099001N1-00201-00801999999ADDMA1101691999999REMMET047METAR ENBL 130550Z VRB01KT CAVOK M02/M08 Q1017;
0074010015999992010011308504+61383+005867FM-15+0327ENBL V0200401N001519999999Y0099001N1-00101-00701999999ADDMA1101691999999REMMET047METAR ENBL 130850Z 04003KT CAVOK M01/M07 Q1017;
0073010015999992010011309204+61383+005867FM-15+0327ENBL V0200501N001019999999Y0099001N1+00101-00801999999ADDMA1101691999999REMMET046METAR ENBL 130920Z 05002KT CAVOK 01/M08 Q1017;
0074010015999992010011309504+61383+005867FM-15+0327ENBL V0203301N001519999999Y0099001N1-00101-00901999999ADDMA1101691999999REMMET047METAR ENBL 130950Z 33003KT CAVOK M01/M09 Q1017;
0073010015999992010011310204+61383+005867FM-15+0327ENBL V0203601N001519999999Y0099001N1+00001-00801999999ADDMA1101691999999REMMET046METAR ENBL 131020Z 36003KT CAVOK 00/M08 Q1017;
0073010015999992010011310504+61383+005867FM-15+0327ENBL V0200201N001019999999Y0099001N1+00201-00901999999ADDMA1101691999999REMMET046METAR ENBL 131050Z 02002KT CAVOK 02/M09 Q1017;
0073010015999992010011311204+61383+005867FM-15+0327ENBL V0200601N001519999999Y0099001N1+00301-00901999999ADDMA1101691999999REMMET046METAR ENBL 131120Z 06003KT CAVOK 03/M09 Q1017;
0073010015999992010011311504+61383+005867FM-15+0327ENBL V0201501N001519999999Y0099001N1+00301-00901999999ADDMA1101691999999REMMET046METAR ENBL 131150Z 15003KT CAVOK 03/M09 Q1017;
0073010015999992010011312204+61383+005867FM-15+0327ENBL V0201101N002119999999Y0099001N1+00401-00901999999ADDMA1101591999999REMMET046METAR ENBL 131220Z 11004KT CAVOK 04/M09 Q1016;
0073010015999992010011312504+61383+005867FM-15+0327ENBL V0201801N002119999999Y0099001N1+00301-00901999999ADDMA1101591999999REMMET046METAR ENBL 131250Z 18004KT CAVOK 03/M09 Q1016;
0073010015999992010011313204+61383+005867FM-15+0327ENBL V0209999V001019999999Y0099001N1+00201-00901999999ADDMA1101591999999REMMET046METAR ENBL 131320Z VRB02KT CAVOK 02/M09 Q1016;
0073010015999992010011313504+61383+005867FM-15+0327ENBL V0209999V001019999999Y0099001N1+00101-00901999999ADDMA1101591999999REMMET046METAR ENBL 131350Z VRB02KT CAVOK 01/M09 Q1016;
0073010015999992010011314204+61383+005867FM-15+0327ENBL V0209999V001019999999Y0099001N1+00101-00901999999ADDMA1101591999999REMMET046METAR ENBL 131420Z VRB02KT CAVOK 01/M09 Q1016;
0073010015999992010011314504+61383+005867FM-15+0327ENBL V0209999V001019999999Y0099001N1+00001-00901999999ADDMA1101591999999REMMET046METAR ENBL 131450Z VRB02KT CAVOK 00/M09 Q1016;
0074010015999992010011315204+61383+005867FM-15+0327ENBL V0209999V001019999999Y0099001N1-00101-00901999999ADDMA1101491999999REMMET047METAR ENBL 131520Z VRB02KT CAVOK M01/M09 Q1015;
0074010015999992010011315504+61383+005867FM-15+0327ENBL V0209999V001019999999Y0099001N1-00101-00901999999ADDMA1101491999999REMMET047METAR ENBL 131550Z VRB02KT CAVOK M01/M09 Q1015;
0074010015999992010011316504+61383+005867FM-15+0327ENBL V0203501N001019999999Y0099001N1-00201-00901999999ADDMA1101491999999REMMET047METAR ENBL 131650Z 35002KT CAVOK M02/M09 Q1015;
0074010015999992010011317204+61383+005867FM-15+0327ENBL V0209999V001019999999Y0099001N1-00201-00901999999ADDMA1101491999999REMMET047METAR ENBL 131720Z VRB02KT CAVOK M02/M09 Q1015;
0074010015999992010011317504+61383+005867FM-15+0327ENBL V0203301N001519999999Y0099001N1-00301-01001999999ADDMA1101491999999REMMET047METAR ENBL 131750Z 33003KT CAVOK M03/M10 Q1015;
0074010015999992010011318204+61383+005867FM-15+0327ENBL V0203401N002119999999Y0099001N1-00201-00901999999ADDMA1101491999999REMMET047METAR ENBL 131820Z 34004KT CAVOK M02/M09 Q1015;
0074010015999992010011318504+61383+005867FM-15+0327ENBL V0203601N002119999999Y0099001N1-00301-01001999999ADDMA1101391999999REMMET047METAR ENBL 131850Z 36004KT CAVOK M03/M10 Q1014;
0074010015999992010011319204+61383+005867FM-15+0327ENBL V0203201N001019999999Y0099001N1-00201-01001999999ADDMA1101391999999REMMET047METAR ENBL 131920Z 32002KT CAVOK M02/M10 Q1014;
0074010015999992010011319504+61383+005867FM-15+0327ENBL V0200301N002619999999Y0099001N1+00001-01001999999ADDMA1101391999999REMMET047METAR ENBL 131950Z 03005KT CAVOK M00/M10 Q1014;
0073010015999992010011320204+61383+005867FM-15+0327ENBL V0201401N002119999999Y0099001N1+00001-01001999999ADDMA1101391999999REMMET046METAR ENBL 132020Z 14004KT CAVOK 00/M10 Q1014;
0073010015999992010011320504+61383+005867FM-15+0327ENBL V0200201N002119999999Y0099001N1+00001-01001999999ADDMA1101391999999REMMET046METAR ENBL 132050Z 02004KT CAVOK 00/M10 Q1014;
0073010015999992010011321204+61383+005867FM-15+0327ENBL V0200301N002119999999Y0099001N1+00201-01101999999ADDMA1101391999999REMMET046METAR ENBL 132120Z 03004KT CAVOK 02/M11 Q1014;
0073010015999992010011321504+61383+005867FM-15+0327ENBL V0200301N001519999999Y0099001N1+00101-01101999999ADDMA1101391999999REMMET046METAR ENBL 132150Z 03003KT CAVOK 01/M11 Q1014;
0073010015999992010011404504+61383+005867FM-15+0327ENBL V0201401N002619999999Y0099001N1+00201-00901999999ADDMA1101291999999REMMET046METAR ENBL 140450Z 14005KT CAVOK 02/M09 Q1013;
0073010015999992010011405204+61383+005867FM-15+0327ENBL V0200201N002119999999Y0099001N1+00101-00901999999ADDMA1101291999999REMMET046METAR ENBL 140520Z 02004KT CAVOK 01/M09 Q1013;
0073010015999992010011405504+61383+005867FM-15+0327ENBL V0200601N003119999999Y0099001N1+00201-00901999999ADDMA1101291999999REMMET046METAR ENBL 140550Z 06006KT CAVOK 02/M09 Q1013;
0073010015999992010011406204+61383+005867FM-15+0327ENBL V0201001N004619999999Y0099001N1+00201-00901999999ADDMA1101291999999REMMET046METAR ENBL 140620Z 10009KT CAVOK 02/M09 Q1013;
0081010015999992010011406504+61383+005867FM-15+0327ENBL V0200801N003619999999Y0099001N1+00101-00901999999ADDMA1101291999999REMMET054METAR ENBL 140650Z 08007KT 020V170 CAVOK 01/M09 Q1013;
0081010015999992010011407204+61383+005867FM-15+0327ENBL V0201101N003119999999Y0099001N1+00201-01001999999ADDMA1101291999999REMMET054METAR ENBL 140720Z 11006KT 070V150 CAVOK 02/M10 Q1013;
0073010015999992010011407504+61383+005867FM-15+0327ENBL V0201201N003119999999Y0099001N1+00201-01001999999ADDMA1101291999999REMMET046METAR ENBL 140750Z 12006KT CAVOK 02/M10 Q1013;
0081010015999992010011408204+61383+005867FM-15+0327ENBL V0201301N003619999999Y0099001N1+00201-01001999999ADDMA1101391999999REMMET054METAR ENBL 140820Z 13007KT 090V150 CAVOK 02/M10 Q1014;
0073010015999992010011408504+61383+005867FM-15+0327ENBL V0209999V002119999999Y0099001N1+00101-01001999999ADDMA1101391999999REMMET046METAR ENBL 140850Z VRB04KT CAVOK 01/M10 Q1014;
0073010015999992010011409204+61383+005867FM-15+0327ENBL V0200301N001519999999Y0099001N1+00101-01001999999ADDMA1101391999999REMMET046METAR ENBL 140920Z 03003KT CAVOK 01/M10 Q1014;
0074010015999992010011409504+61383+005867FM-15+0327ENBL V0200301N001519999999Y0099001N1-00101-01001999999ADDMA1101391999999REMMET047METAR ENBL 140950Z 03003KT CAVOK M01/M10 Q1014;
0073010015999992010011410204+61383+005867FM-15+0327ENBL V0200801N003119999999Y0099001N1+00101-00901999999ADDMA1101391999999REMMET046METAR ENBL 141020Z 08006KT CAVOK 01/M09 Q1014;
0073010015999992010011410504+61383+005867FM-15+0327ENBL V0201001N002119999999Y0099001N1+00201-01001999999ADDMA1101391999999REMMET046METAR ENBL 141050Z 10004KT CAVOK 02/M10 Q1014;
0073010015999992010011411204+61383+005867FM-15+0327ENBL V0200601N002119999999Y0099001N1+00301-01001999999ADDMA1101391999999REMMET046METAR ENBL 141120Z 06004KT CAVOK 03/M10 Q1014;
0073010015999992010011411504+61383+005867FM-15+0327ENBL V0200701N004119999999Y0099001N1+00201-01001999999ADDMA1101391999999REMMET046METAR ENBL 141150Z 07008KT CAVOK 02/M10 Q1014;
0073010015999992010011412204+61383+005867FM-15+0327ENBL V0200801N004119999999Y0099001N1+00201-01001999999ADDMA1101291999999REMMET046METAR ENBL 141220Z 08008KT CAVOK 02/M10 Q1013;
0073010015999992010011412504+61383+005867FM-15+0327ENBL V0200801N003619999999Y0099001N1+00201-01001999999ADDMA1101291999999REMMET046METAR ENBL 141250Z 08007KT CAVOK 02/M10 Q1013;
0073010015999992010011413204+61383+005867FM-15+0327ENBL V0201001N004619999999Y0099001N1+00201-01001999999ADDMA1101291999999REMMET046METAR ENBL 141320Z 10009KT CAVOK 02/M10 Q1013;
0073010015999992010011414204+61383+005867FM-15+0327ENBL V0200901N005119999999Y0099001N1+00201-01101999999ADDMA1101291999999REMMET046METAR ENBL 141420Z 09010KT CAVOK 02/M11 Q1013;
0073010015999992010011414504+61383+005867FM-15+0327ENBL V0200901N004119999999Y0099001N1+00201-01001999999ADDMA1101291999999REMMET046METAR ENBL 141450Z 09008KT CAVOK 02/M10 Q1013;
0073010015999992010011415204+61383+005867FM-15+0327ENBL V0200601N002619999999Y0099001N1+00201-01101999999ADDMA1101291999999REMMET046METAR ENBL 141520Z 06005KT CAVOK 02/M11 Q1013;
0073010015999992010011416204+61383+005867FM-15+0327ENBL V0200501N002619999999Y0099001N1+00101-01001999999ADDMA1101291999999REMMET046METAR ENBL 141620Z 05005KT CAVOK 01/M10 Q1013;
0073010015999992010011416504+61383+005867FM-15+0327ENBL V0200501N003119999999Y0099001N1+00201-01101999999ADDMA1101291999999REMMET046METAR ENBL 141650Z 05006KT CAVOK 02/M11 Q1013;
0073010015999992010011417204+61383+005867FM-15+0327ENBL V0200601N002119999999Y0099001N1+00101-01101999999ADDMA1101291999999REMMET046METAR ENBL 141720Z 06004KT CAVOK 01/M11 Q1013;
0073010015999992010011417504+61383+005867FM-15+0327ENBL V0200601N002619999999Y0099001N1+00101-01001999999ADDMA1101391999999REMMET046METAR ENBL 141750Z 06005KT CAVOK 01/M10 Q1014;
0073010015999992010011418204+61383+005867FM-15+0327ENBL V0209999V001019999999Y0099001N1+00101-01101999999ADDMA1101391999999REMMET046METAR ENBL 141820Z VRB02KT CAVOK 01/M11 Q1014;
0074010015999992010011419204+61383+005867FM-15+0327ENBL V0202801N001019999999Y0099001N1-00101-01101999999ADDMA1101391999999REMMET047METAR ENBL 141920Z 28002KT CAVOK M01/M11 Q1014;
0074010015999992010011419504+61383+005867FM-15+0327ENBL V0209999V000519999999Y0099001N1-00201-01101999999ADDMA1101391999999REMMET047METAR ENBL 141950Z VRB01KT CAVOK M02/M11 Q1014;
0074010015999992010011420204+61383+005867FM-15+0327ENBL V0209999V001019999999Y0099001N1-00101-01201999999ADDMA1101491999999REMMET047METAR ENBL 142020Z VRB02KT CAVOK M01/M12 Q1015;
0074010015999992010011420504+61383+005867FM-15+0327ENBL V0201301N001519999999Y0099001N1+00001-01101999999ADDMA1101491999999REMMET047METAR ENBL 142050Z 13003KT CAVOK M00/M11 Q1015;
0074010015999992010011421204+61383+005867FM-15+0327ENBL V0203401N001519999999Y0099001N1+00001-01201999999ADDMA1101491999999REMMET047METAR ENBL 142120Z 34003KT CAVOK M00/M12 Q1015;
0074010015999992010011504504+61383+005867FM-15+0327ENBL V0209999V001019999999Y0099001N1-00301-01101999999ADDMA1101591999999REMMET047METAR ENBL 150450Z VRB02KT CAVOK M03/M11 Q1016;
0074010015999992010011505204+61383+005867FM-15+0327ENBL V0202801N001519999999Y0099001N1-00301-01101999999ADDMA1101691999999REMMET047METAR ENBL 150520Z 28003KT CAVOK M03/M11 Q1017;
0074010015999992010011506204+61383+005867FM-15+0327ENBL V0209999V000519999999Y0099001N1-00301-00801999999ADDMA1101691999999REMMET047METAR ENBL 150620Z VRB01KT CAVOK M03/M08 Q1017;
0074010015999992010011506504+61383+005867FM-15+0327ENBL V0209999V001019999999Y0099001N1-00501-01101999999ADDMA1101691999999REMMET047METAR ENBL 150650Z VRB02KT CAVOK M05/M11 Q1017;
0122010015999992010011507504+61383+005867FM-15+0327ENBL V0200701N001512200019N0112651N1-00401-00901999999ADDGA1021+014101999GF102991999999999999999999MA1101801999999REMMET053METAR ENBL 150750Z 07003KT 9999 FEW047 M04/M09 Q1018;
0145010015999992010011508204+61383+005867FM-15+0327ENBL V0209999V001012200019N0112651N1-00401-01001999999ADDGA1021+012301999GA2041+014701999GF104991999999999999999999MA1101801999999REMMET060METAR ENBL 150820Z VRB02KT 9999 FEW041 SCT049 M04/M10 Q1018;
0122010015999992010011508504+61383+005867FM-15+0327ENBL V0209999V001012200019N0112651N1-00301-01001999999ADDGA1041+012601999GF104991999999999999999999MA1101801999999REMMET053METAR ENBL 150850Z VRB02KT 9999 SCT042 M03/M10 Q1018;
0122010015999992010011509204+61383+005867FM-15+0327ENBL V0202701N002112200019N0112651N1-00301-01101999999ADDGA1041+012601999GF104991999999999999999999MA1101801999999REMMET053METAR ENBL 150920Z 27004KT 9999 SCT042 M03/M11 Q1018;
0122010015999992010011509504+61383+005867FM-15+0327ENBL V0202701N001512200019N0112651N1-00301-01101999999ADDGA1021+012901999GF102991999999999999999999MA1101801999999REMMET053METAR ENBL 150950Z 27003KT 9999 FEW043 M03/M11 Q1018;
0122010015999992010011510204+61383+005867FM-15+0327ENBL V0209999V001012200019N0112651N1-00201-01101999999ADDGA1021+012901999GF102991999999999999999999MA1101801999999REMMET053METAR ENBL 151020Z VRB02KT 9999 FEW043 M02/M11 Q1018;
0122010015999992010011510504+61383+005867FM-15+0327ENBL V0209999C000012200019N0112651N1-00101-01101999999ADDGA1021+013501999GF102991999999999999999999MA1101801999999REMMET053METAR ENBL 151050Z 00000KT 9999 FEW045 M01/M11 Q1018;
0122010015999992010011511204+61383+005867FM-15+0327ENBL V0202201N001512200019N0112651N1+00001-01101999999ADDGA1021+013501999GF102991999999999999999999MA1101901999999REMMET053METAR ENBL 151120Z 22003KT 9999 FEW045 M00/M11 Q1019;
0122010015999992010011511504+61383+005867FM-15+0327ENBL V0202201N001012200019N0112651N1-00101-01201999999ADDGA1041+013501999GF104991999999999999999999MA1101901999999REMMET053METAR ENBL 151150Z 22002KT 9999 SCT045 M01/M12 Q1019;
0145010015999992010011512504+61383+005867FM-15+0327ENBL V0202401N004112200019N0112651N1-00101-01101999999ADDGA1021+013501999GA2041+015001999GF104991999999999999999999MA1101901999999REMMET060METAR ENBL 151250Z 24008KT 9999 FEW045 SCT058 M01/M11 Q1019;
0122010015999992010011513504+61383+005867FM-15+0327ENBL V0202301N004612200019N0112651N1-00101-01101999999ADDGA1021+013501999GF102991999999999999999999MA1101901999999REMMET053METAR ENBL 151350Z 23009KT 9999 FEW045 M01/M11 Q1019;
0122010015999992010011514204+61383+005867FM-15+0327ENBL V0202401N003612200019N0112651N1-00201-01001999999ADDGA1021+013501999GF102991999999999999999999MA1101801999999REMMET053METAR ENBL 151420Z 24007KT 9999 FEW045 M02/M10 Q1018;
0122010015999992010011514504+61383+005867FM-15+0327ENBL V0202501N005112200019N0112651N1-00201-01001999999ADDGA1021+013501999GF102991999999999999999999MA1101901999999REMMET053METAR ENBL 151450Z 25010KT 9999 FEW045 M02/M10 Q1019;
0122010015999992010011515204+61383+005867FM-15+0327ENBL V0202501N004112200019N0112651N1-00301-01101999999ADDGA1021+013501999GF102991999999999999999999MA1101901999999REMMET053METAR ENBL 151520Z 25008KT 9999 FEW045 M03/M11 Q1019;
0122010015999992010011515504+61383+005867FM-15+0327ENBL V0202601N002612200019N0112651N1-00301-01101999999ADDGA1021+013501999GF102991999999999999999999MA1101901999999REMMET053METAR ENBL 151550Z 26005KT 9999 FEW045 M03/M11 Q1019;
0122010015999992010011516204+61383+005867FM-15+0327ENBL V0209999V000512200019N0112651N1-00401-01101999999ADDGA1021+013501999GF102991999999999999999999MA1101901999999REMMET053METAR ENBL 151620Z VRB01KT 9999 FEW045 M04/M11 Q1019;
0122010015999992010011517204+61383+005867FM-15+0327ENBL V0209999V000512200019N0112651N1-00401-01101999999ADDGA1021+013501999GF102991999999999999999999MA1101801999999REMMET053METAR ENBL 151720Z VRB01KT 9999 FEW045 M04/M11 Q1018;
0122010015999992010011517504+61383+005867FM-15+0327ENBL V0209999V001012200019N0112651N1-00401-01101999999ADDGA1021+013501999GF102991999999999999999999MA1101801999999REMMET053METAR ENBL 151750Z VRB02KT 9999 FEW045 M04/M11 Q1018;
0122010015999992010011518204+61383+005867FM-15+0327ENBL V0209999V001012200019N0112651N1-00401-01001999999ADDGA1021+015001999GF102991999999999999999999MA1101801999999REMMET053METAR ENBL 151820Z VRB02KT 9999 FEW050 M04/M10 Q1018;
0122010015999992010011518504+61383+005867FM-15+0327ENBL V0209999V001012200019N0112651N1-00401-01001999999ADDGA1021+015001999GF102991999999999999999999MA1101801999999REMMET053METAR ENBL 151850Z VRB02KT 9999 FEW050 M04/M10 Q1018;
0122010015999992010011519204+61383+005867FM-15+0327ENBL V0209999V001012200019N0112651N1-00301-01001999999ADDGA1021+015001999GF102991999999999999999999MA1101801999999REMMET053METAR ENBL 151920Z VRB02KT 9999 FEW050 M03/M10 Q1018;
0122010015999992010011520204+61383+005867FM-15+0327ENBL V0209999V001012200019N0112651N1-00201-00901999999ADDGA1021+015001999GF102991999999999999999999MA1101801999999REMMET053METAR ENBL 152020Z VRB02KT 9999 FEW050 M02/M09 Q1018;
0074010015999992010011520504+61383+005867FM-15+0327ENBL V0209999V001019999999Y0099001N1-00201-00901999999ADDMA1101801999999REMMET047METAR ENBL 152050Z VRB02KT CAVOK M02/M09 Q1018;
0074010015999992010011521204+61383+005867FM-15+0327ENBL V0209999V001019999999Y0099001N1-00201-00901999999ADDMA1101801999999REMMET047METAR ENBL 152120Z VRB02KT CAVOK M02/M09 Q1018;
0073010015999992010011606504+61383+005867FM-15+0327ENBL V0201401N003619999999Y0099001N1+00101-01001999999ADDMA1101491999999REMMET046METAR ENBL 160650Z 14007KT CAVOK 01/M10 Q1015;
0073010015999992010011607504+61383+005867FM-15+0327ENBL V0201201N004119999999Y0099001N1+00101-01001999999ADDMA1101491999999REMMET046METAR ENBL 160750Z 12008KT CAVOK 01/M10 Q1015;
0073010015999992010011608204+61383+005867FM-15+0327ENBL V0201201N005119999999Y0099001N1+00201-01001999999ADDMA1101491999999REMMET046METAR ENBL 160820Z 12010KT CAVOK 02/M10 Q1015;
0073010015999992010011609204+61383+005867FM-15+0327ENBL V0201201N005719999999Y0099001N1+00101-01001999999ADDMA1101491999999REMMET046METAR ENBL 160920Z 12011KT CAVOK 01/M10 Q1015;
0073010015999992010011610204+61383+005867FM-15+0327ENBL V0201301N004119999999Y0099001N1+00101-01001999999ADDMA1101491999999REMMET046METAR ENBL 161020Z 13008KT CAVOK 01/M10 Q1015;
0073010015999992010011610504+61383+005867FM-15+0327ENBL V0201001N006219999999Y0099001N1+00101-01001999999ADDMA1101491999999REMMET046METAR ENBL 161050Z 10012KT CAVOK 01/M10 Q1015;
0073010015999992010011611204+61383+005867FM-15+0327ENBL V0201001N005119999999Y0099001N1+00101-01001999999ADDMA1101391999999REMMET046METAR ENBL 161120Z 10010KT CAVOK 01/M10 Q1014;
0073010015999992010011613204+61383+005867FM-15+0327ENBL V0201301N005719999999Y0099001N1+00101-01001999999ADDMA1101291999999REMMET046METAR ENBL 161320Z 13011KT CAVOK 01/M10 Q1013;
0073010015999992010011613504+61383+005867FM-15+0327ENBL V0201301N004119999999Y0099001N1+00101-01001999999ADDMA1101291999999REMMET046METAR ENBL 161350Z 13008KT CAVOK 01/M10 Q1013;
0073010015999992010011615204+61383+005867FM-15+0327ENBL V0201101N002619999999Y0099001N1+00001-01101999999ADDMA1101191999999REMMET046METAR ENBL 161520Z 11005KT CAVOK 00/M11 Q1012;
0155010015999992010011710504+61383+005867FM-15+0327ENBL V0201401N006210135019N0112651N1-00101-00701999999ADDGA1041+009001999GA2071+013501999GF107991999999999999999999MA1101191999999MW1711REMMET064METAR ENBL 171050Z 14012KT 9999 -SN SCT030 BKN045 M01/M07 Q1012;
0155010015999992010011711204+61383+005867FM-15+0327ENBL V0201401N006210135019N0112651N1-00101-00701999999ADDGA1041+009001999GA2071+013501999GF107991999999999999999999MA1101191999999MW1711REMMET064METAR ENBL 171120Z 14012KT 9999 -SN SCT030 BKN045 M01/M07 Q1012;
0189010015999992010011711504+61383+005867FM-15+0327ENBL V0201601N00511009001CN0112651N1-00101-00701999999ADDGA1021+006001999GA2041+009001999GA3071+013501999GF107991999999999999999999MA1101191999999MW1711OC101031REMMET074METAR ENBL 171150Z 16010G20KT 9999 -SN FEW020 SCT030 BKN045 M01/M07 Q1012;
0179010015999992010011712204+61383+005867FM-15+0327ENBL V0201401N00571009001CN0112651N1-00101-00701999999ADDGA1021+006001999GA2041+009001999GA3071+013501999GF107991999999999999999999MA1101191999999OC101131REMMET070METAR ENBL 171220Z 14011G22KT 9999 FEW020 SCT030 BKN045 M01/M07 Q1012;
0168010015999992010011712504+61383+005867FM-15+0327ENBL V0201601N00411009001CN0112651N1-00101-00701999999ADDGA1021+006001999GA2041+009001999GA3071+013501999GF107991999999999999999999MA1101191999999REMMET067METAR ENBL 171250Z 16008KT 9999 FEW020 SCT030 BKN045 M01/M07 Q1012;
0168010015999992010011714204+61383+005867FM-15+0327ENBL V0201601N00411009001CN0112651N1-00101-00801999999ADDGA1021+006001999GA2041+009001999GA3071+013501999GF107991999999999999999999MA1101291999999REMMET067METAR ENBL 171420Z 16008KT 9999 FEW020 SCT030 BKN045 M01/M08 Q1013;
0168010015999992010011714504+61383+005867FM-15+0327ENBL V0201601N00361012001CN0112651N1-00101-00801999999ADDGA1021+006001999GA2041+012001999GA3071+015001999GF107991999999999999999999MA1101291999999REMMET067METAR ENBL 171450Z 16007KT 9999 FEW020 SCT040 BKN050 M01/M08 Q1013;
0168010015999992010011715204+61383+005867FM-15+0327ENBL V0201601N00411012001CN0112651N1-00101-00801999999ADDGA1021+006001999GA2041+012001999GA3071+015001999GF107991999999999999999999MA1101391999999REMMET067METAR ENBL 171520Z 16008KT 9999 FEW020 SCT040 BKN050 M01/M08 Q1014;
0168010015999992010011715504+61383+005867FM-15+0327ENBL V0201501N00411012001CN0112651N1-00101-00901999999ADDGA1021+006001999GA2041+012001999GA3071+015001999GF107991999999999999999999MA1101391999999REMMET067METAR ENBL 171550Z 15008KT 9999 FEW020 SCT040 BKN050 M01/M09 Q1014;
0168010015999992010011716204+61383+005867FM-15+0327ENBL V0201501N00411012001CN0112651N1-00101-00901999999ADDGA1021+006001999GA2041+012001999GA3071+015001999GF107991999999999999999999MA1101391999999REMMET067METAR ENBL 171620Z 15008KT 9999 FEW020 SCT040 BKN050 M01/M09 Q1014;
0168010015999992010011716504+61383+005867FM-15+0327ENBL V0201501N00411012001CN0112651N1-00101-00901999999ADDGA1021+006001999GA2041+012001999GA3071+015001999GF107991999999999999999999MA1101391999999REMMET067METAR ENBL 171650Z 15008KT 9999 FEW020 SCT040 BKN050 M01/M09 Q1014;
0168010015999992010011717204+61383+005867FM-15+0327ENBL V0201501N00361012001CN0112651N1-00101-00901999999ADDGA1021+006001999GA2041+012001999GA3071+015001999GF107991999999999999999999MA1101491999999REMMET067METAR ENBL 171720Z 15007KT 9999 FEW020 SCT040 BKN050 M01/M09 Q1015;
0145010015999992010011718504+61383+005867FM-15+0327ENBL V0201601N003610150019N0112651N1-00101-00901999999ADDGA1021+007501999GA2071+015001999GF107991999999999999999999MA1101491999999REMMET060METAR ENBL 171850Z 16007KT 9999 FEW025 BKN050 M01/M09 Q1015;
0145010015999992010011719204+61383+005867FM-15+0327ENBL V0201401N003610150019N0112651N1-00101-00901999999ADDGA1021+007501999GA2071+015001999GF107991999999999999999999MA1101491999999REMMET060METAR ENBL 171920Z 14007KT 9999 FEW025 BKN050 M01/M09 Q1015;
0145010015999992010011719504+61383+005867FM-15+0327ENBL V0201001N003110150019N0112651N1-00101-00901999999ADDGA1021+007501999GA2071+015001999GF107991999999999999999999MA1101491999999REMMET060METAR ENBL 171950Z 10006KT 9999 FEW025 BKN050 M01/M09 Q1015;
0168010015999992010011720204+61383+005867FM-15+0327ENBL V0201201N00261012001CN0112651N1-00101-00901999999ADDGA1021+007501999GA2041+012001999GA3071+015001999GF107991999999999999999999MA1101591999999REMMET067METAR ENBL 172020Z 12005KT 9999 FEW025 SCT040 BKN050 M01/M09 Q1016;
0168010015999992010011720504+61383+005867FM-15+0327ENBL V0201301N00211012001CN0112651N1-00101-00901999999ADDGA1021+007501999GA2041+012001999GA3071+015001999GF107991999999999999999999MA1101591999999REMMET067METAR ENBL 172050Z 13004KT 9999 FEW025 SCT040 BKN050 M01/M09 Q1016;
0145010015999992010011721204+61383+005867FM-15+0327ENBL V0201601N001510120019N0112651N1-00101-00901999999ADDGA1021+007501999GA2071+012001999GF107991999999999999999999MA1101591999999REMMET060METAR ENBL 172120Z 16003KT 9999 FEW025 BKN040 M01/M09 Q1016;
0145010015999992010011721504+61383+005867FM-15+0327ENBL V0201701N001510120019N0112651N1-00101-00901999999ADDGA1021+007501999GA2071+012001999GF107991999999999999999999MA1101591999999REMMET060METAR ENBL 172150Z 17003KT 9999 FEW025 BKN040 M01/M09 Q1016;
0153010015999992010011804504+61383+005867FM-15+0327ENBL V0201501N005110132019N0112651N1-00101-00901999999ADDGA1021+004501999GA2071+013201999GF107991999999999999999999MA1101591999999REMMET068METAR ENBL 180450Z 15010KT 110V190 9999 FEW015 BKN044 M01/M09 Q1016;
0153010015999992010011805204+61383+005867FM-15+0327ENBL V0201401N004610126019N0112651N1-00101-00901999999ADDGA1021+004501999GA2071+012601999GF107991999999999999999999MA1101591999999REMMET068METAR ENBL 180520Z 14009KT 110V180 9999 FEW015 BKN042 M01/M09 Q1016;
0153010015999992010011805504+61383+005867FM-15+0327ENBL V0201501N003610126019N0112651N1-00101-00901999999ADDGA1021+004501999GA2071+012601999GF107991999999999999999999MA1101591999999REMMET068METAR ENBL 180550Z 15007KT 100V220 9999 FEW015 BKN042 M01/M09 Q1016;
0153010015999992010011806204+61383+005867FM-15+0327ENBL V0201501N003610126019N0112651N1-00101-00901999999ADDGA1021+004501999GA2071+012601999GF107991999999999999999999MA1101591999999REMMET068METAR ENBL 180620Z 15007KT 110V200 9999 FEW015 BKN042 M01/M09 Q1016;
0153010015999992010011806504+61383+005867FM-15+0327ENBL V0201601N004110126019N0112651N1-00101-00901999999ADDGA1021+004501999GA2071+012601999GF107991999999999999999999MA1101591999999REMMET068METAR ENBL 180650Z 16008KT 110V200 9999 FEW015 BKN042 M01/M09 Q1016;
0145010015999992010011807204+61383+005867FM-15+0327ENBL V0201501N003110120019N0112651N1-00201-01001999999ADDGA1021+004501999GA2071+012001999GF107991999999999999999999MA1101591999999REMMET060METAR ENBL 180720Z 15006KT 9999 FEW015 BKN040 M02/M10 Q1016;
0122010015999992010011808204+61383+005867FM-15+0327ENBL V0201501N004110120019N0112651N1-00201-01001999999ADDGA1071+012001999GF107991999999999999999999MA1101591999999REMMET053METAR ENBL 180820Z 15008KT 9999 BKN040 M02/M10 Q1016;
0122010015999992010011808504+61383+005867FM-15+0327ENBL V0201301N003110120019N0112651N1-00201-01001999999ADDGA1071+012001999GF107991999999999999999999MA1101591999999REMMET053METAR ENBL 180850Z 13006KT 9999 BKN040 M02/M10 Q1016;
0122010015999992010011809204+61383+005867FM-15+0327ENBL V0201201N004612200019N0112651N1-00201-01001999999ADDGA1041+012001999GF104991999999999999999999MA1101691999999REMMET053METAR ENBL 180920Z 12009KT 9999 SCT040 M02/M10 Q1017;
0122010015999992010011809504+61383+005867FM-15+0327ENBL V0201201N004112200019N0112651N1-00201-01001999999ADDGA1021+012001999GF102991999999999999999999MA1101691999999REMMET053METAR ENBL 180950Z 12008KT 9999 FEW040 M02/M10 Q1017;
0130010015999992010011810204+61383+005867FM-15+0327ENBL V0201201N003612200019N0112651N1-00201-01001999999ADDGA1021+012001999GF102991999999999999999999MA1101591999999REMMET061METAR ENBL 181020Z 12007KT 070V200 9999 FEW040 M02/M10 Q1016;
0122010015999992010011811204+61383+005867FM-15+0327ENBL V0201201N003612200019N0112651N1-00201-01101999999ADDGA1021+012001999GF102991999999999999999999MA1101591999999REMMET053METAR ENBL 181120Z 12007KT 9999 FEW040 M02/M11 Q1016;
0122010015999992010011811504+61383+005867FM-15+0327ENBL V0201301N002612200019N0112651N1-00101-01101999999ADDGA1041+012001999GF104991999999999999999999MA1101591999999REMMET053METAR ENBL 181150Z 13005KT 9999 SCT040 M01/M11 Q1016;
0145010015999992010011812504+61383+005867FM-15+0327ENBL V0201301N002610240019N0112651N1-00101-01101999999ADDGA1041+012001999GA2071+024001999GF107991999999999999999999MA1101591999999REMMET060METAR ENBL 181250Z 13005KT 9999 SCT040 BKN080 M01/M11 Q1016;
0156010015999992010011813504+61383+005867FM-15+0327ENBL V0201501N001510210019N0112651N1-00101-01001999999ADDGA1041+009001999GA2071+021001999GF107991999999999999999999MA1101691999999MW1161REMMET065METAR ENBL 181350Z 15003KT 9999 VCSH SCT030 BKN070 M01/M10 Q1017;
0127010015999992010011814504+61383+005867FM-15+0327ENBL V0201801N002610045019N0070001N1-00201-00801999999ADDGA1091+004501999GF109991999999000251999999MA1101691999999REMMET058METAR ENBL 181450Z 18005KT 7000 -SHSN VV015 M02/M08 Q1017;
0127010015999992010011815204+61383+005867FM-15+0327ENBL V0202001N001510045019N0050001N1-00301-00701999999ADDGA1091+004501999GF109991999999000251999999MA1101801999999REMMET058METAR ENBL 181520Z 20003KT 5000 -SHSN VV015 M03/M07 Q1018;
0127010015999992010011815504+61383+005867FM-15+0327ENBL V0202601N001510075019N0080001N1-00301-00701999999ADDGA1091+007501999GF109991999999000251999999MA1101801999999REMMET058METAR ENBL 181550Z 26003KT 8000 -SHSN VV025 M03/M07 Q1018;
0127010015999992010011816204+61383+005867FM-15+0327ENBL V0203001N001510075019N0080001N1-00301-00701999999ADDGA1091+007501999GF109991999999000251999999MA1101801999999REMMET058METAR ENBL 181620Z 30003KT 8000 -SHSN VV025 M03/M07 Q1018;
0122010015999992010011816504+61383+005867FM-15+0327ENBL V0203001N001510096019N0112651N1-00301-00601999999ADDGA1071+009601999GF107991999999999999999999MA1101801999999REMMET053METAR ENBL 181650Z 30003KT 9999 BKN032 M03/M06 Q1018;
0122010015999992010011817204+61383+005867FM-15+0327ENBL V0202501N001010096019N0112651N1-00301-00601999999ADDGA1071+009601999GF107991999999999999999999MA1101801999999REMMET053METAR ENBL 181720Z 25002KT 9999 BKN032 M03/M06 Q1018;
0122010015999992010011818204+61383+005867FM-15+0327ENBL V0202501N001010090019N0112651N1-00201-00701999999ADDGA1071+009001999GF107991999999999999999999MA1101901999999REMMET053METAR ENBL 181820Z 25002KT 9999 BKN030 M02/M07 Q1019;
0122010015999992010011818504+61383+005867FM-15+0327ENBL V0202201N001010090019N0112651N1-00301-00701999999ADDGA1071+009001999GF107991999999999999999999MA1101901999999REMMET053METAR ENBL 181850Z 22002KT 9999 BKN030 M03/M07 Q1019;
0122010015999992010011819204+61383+005867FM-15+0327ENBL V0202201N002110090019N0112651N1-00201-00701999999ADDGA1071+009001999GF107991999999999999999999MA1101901999999REMMET053METAR ENBL 181920Z 22004KT 9999 BKN030 M02/M07 Q1019;
0131010015999992010011819504+61383+005867FM-15+0327ENBL V0202301N001510075019N0090001N1-00201-00701999999ADDGA1091+007501999GF109991999999000251999999MA1102001999999MW1711REMMET056METAR ENBL 181950Z 23003KT 9000 -SN VV025 M02/M07 Q1020;
0131010015999992010011820204+61383+005867FM-15+0327ENBL V0202301N001510075019N0090001N1-00201-00701999999ADDGA1091+007501999GF109991999999000251999999MA1102001999999MW1711REMMET056METAR ENBL 182020Z 23003KT 9000 -SN VV025 M02/M07 Q1020;
0131010015999992010011820504+61383+005867FM-15+0327ENBL V0202001N001010045019N0090001N1-00201-00701999999ADDGA1091+004501999GF109991999999000251999999MA1102001999999MW1711REMMET056METAR ENBL 182050Z 20002KT 9000 -SN VV015 M02/M07 Q1020;
0131010015999992010011821204+61383+005867FM-15+0327ENBL V0202201N001010051019N0090001N1-00301-00701999999ADDGA1091+005101999GF109991999999000251999999MA1102101999999MW1711REMMET056METAR ENBL 182120Z 22002KT 9000 -SN VV017 M03/M07 Q1021;
0151010015999992010011821504+61383+005867FM-15+0327ENBL V0202201N001010075019N0050001N1-00301-00501999999ADDGA1041+003601999GA2071+007501999GF107991999999999999999999MA1102101999999REMMET066METAR ENBL 182150Z 22002KT 5000 -SHSN SCT012 BKN025 M03/M05 Q1021;
0151010015999992010011822204+61383+005867FM-15+0327ENBL V0202201N001010075019N0050001N1-00301-00401999999ADDGA1041+003601999GA2071+007501999GF107991999999999999999999MA1102101999999REMMET066METAR ENBL 182220Z 22002KT 5000 -SHSN SCT012 BKN025 M03/M04 Q1021;
0138010015999992010011904504+61383+005867FM-15+0327ENBL V0209999C000010024019N0030001N1-00301-00401999999ADDGA1091+002401999GF109991999999000251999999MA1102301999999MW1711REMMET063METAR ENBL 190450Z 00000KT 3000 -SN SCT003 VV008 M03/M04 Q1023;
0134010015999992010011905504+61383+005867FM-15+0327ENBL V0202601N001010036019N0030001N1-00301-00301999999ADDGA1091+003601999GF109991999999000251999999MA1102401999999REMMET065METAR ENBL 190550Z 26002KT 3000 -SHSN FEW003 VV012 M03/M03 Q1024;
0174010015999992010011906504+61383+005867FM-15+0327ENBL V0202601N00051004501CN0050001N1-00301-00301999999ADDGA1021+000901999GA2041+004501999GA3071+006001999GF107991999999999999999999MA1102401999999REMMET073METAR ENBL 190650Z 26001KT 5000 -SHSN FEW003 SCT015 BKN020 M03/M03 Q1024;
0133010015999992010011907204+61383+005867FM-15+0327ENBL V0209999C000010045019N0060001N1-00301-00301999999ADDGA1091+004501999GF109991999999000251999999MA1102511999999REMMET064METAR ENBL 190720Z 00000KT 6000 -SHN FEW003 VV015 M03/M03 Q1025;
0134010015999992010011907504+61383+005867FM-15+0327ENBL V0209999V001010030019N0040001N1-00301-00301999999ADDGA1091+003001999GF109991999999000251999999MA1102511999999REMMET065METAR ENBL 190750Z VRB02KT 4000 -SHSN FEW003 VV010 M03/M03 Q1025;
0134010015999992010011908204+61383+005867FM-15+0327ENBL V0209999C000010036019N0040001N1-00301-00301999999ADDGA1091+003601999GF109991999999000251999999MA1102511999999REMMET065METAR ENBL 190820Z 00000KT 4000 -SHSN FEW003 VV012 M03/M03 Q1025;
0134010015999992010011908504+61383+005867FM-15+0327ENBL V0209999V001010039019N0060001N1-00301-00301999999ADDGA1091+003901999GF109991999999000251999999MA1102511999999REMMET065METAR ENBL 190850Z VRB02KT 6000 -SHSN FEW007 VV013 M03/M03 Q1025;
0134010015999992010011909204+61383+005867FM-15+0327ENBL V0209999C000010030019N0040001N1-00301-00301999999ADDGA1091+003001999GF109991999999000251999999MA1102611999999REMMET065METAR ENBL 190920Z 00000KT 4000 -SHSN FEW004 VV010 M03/M03 Q1026;
0134010015999992010011909504+61383+005867FM-15+0327ENBL V0209999C000010045019N0060001N1-00201-00301999999ADDGA1091+004501999GF109991999999000251999999MA1102611999999REMMET065METAR ENBL 190950Z 00000KT 6000 -SHSN FEW007 VV015 M02/M03 Q1026;
0134010015999992010011910204+61383+005867FM-15+0327ENBL V0209999C000010045019N0060001N1-00201-00301999999ADDGA1091+004501999GF109991999999000251999999MA1102611999999REMMET065METAR ENBL 191020Z 00000KT 6000 -SHSN FEW007 VV015 M02/M03 Q1026;
0168010015999992010011910504+61383+005867FM-15+0327ENBL V0209999C000010057019N0112651N1-00201-00201999999ADDGA1041+003001999GA2071+005701999GA3021+999999999GF107991999999999999999999MA1102611999999REMMET067METAR ENBL 191050Z 00000KT 9999 FEW/// SCT010 BKN019 M02/M02 Q1026;
0168010015999992010011911204+61383+005867FM-15+0327ENBL V0202501N001010057019N0112651N1-00201-00201999999ADDGA1041+003001999GA2071+005701999GA3021+999999999GF107991999999999999999999MA1102611999999REMMET067METAR ENBL 191120Z 25002KT 9999 FEW/// SCT010 BKN019 M02/M02 Q1026;
0168010015999992010011911504+61383+005867FM-15+0327ENBL V0202501N001010045019N0112651N1-00201-00301999999ADDGA1041+003001999GA2071+004501999GA3021+999999999GF107991999999999999999999MA1102611999999REMMET067METAR ENBL 191150Z 25002KT 9999 FEW/// SCT010 BKN015 M02/M03 Q1026;
0180010015999992010011912204+61383+005867FM-15+0327ENBL V0203001N001010045019N0050001N1-00201-00301999999ADDGA1041+003001999GA2071+004501999GA3021+999999999GF107991999999999999999999MA1102611999999REMMET079METAR ENBL 191220Z 30002KT 5000 2500W -SHSN FEW/// SCT010 BKN015 M02/M03 Q1026;
0180010015999992010011913204+61383+005867FM-15+0327ENBL V0202501N001010045019N0040001N1-00201-00201999999ADDGA1041+002701999GA2071+004501999GA3021+999999999GF107991999999999999999999MA1102611999999REMMET079METAR ENBL 191320Z 25002KT 4000 2000W -SHSN FEW/// SCT009 BKN015 M02/M02 Q1026;
0180010015999992010011914204+61383+005867FM-15+0327ENBL V0209999V000510045019N0040001N1-00101-00201999999ADDGA1041+003001999GA2071+004501999GA3021+999999999GF107991999999999999999999MA1102611999999REMMET079METAR ENBL 191420Z VRB01KT 4000 2000W -SHSN FEW/// SCT010 BKN015 M01/M02 Q1026;
0174010015999992010011914504+61383+005867FM-15+0327ENBL V0209999V00051003001CN0040001N1-00101-00201999999ADDGA1021+000601999GA2041+003001999GA3071+004501999GF107991999999999999999999MA1102711999999REMMET073METAR ENBL 191450Z VRB01KT 4000 -SHSN FEW002 SCT010 BKN015 M01/M02 Q1027;
0174010015999992010011915204+61383+005867FM-15+0327ENBL V0209999V00051003601CN0040001N1-00101-00101999999ADDGA1021+000601999GA2041+003601999GA3071+004801999GF107991999999999999999999MA1102711999999REMMET073METAR ENBL 191520Z VRB01KT 4000 -SHSN FEW002 SCT012 BKN016 M01/M01 Q1027;
0174010015999992010011915504+61383+005867FM-15+0327ENBL V0209999V00051003301CN0040001N1-00101-00201999999ADDGA1021+000901999GA2041+003301999GA3071+004801999GF107991999999999999999999MA1102711999999REMMET073METAR ENBL 191550Z VRB01KT 4000 -SHSN FEW003 SCT011 BKN016 M01/M02 Q1027;
0174010015999992010011916204+61383+005867FM-15+0327ENBL V0209999V00051004801CN0090001N1-00201-00201999999ADDGA1021+000901999GA2041+004801999GA3071+007801999GF107991999999999999999999MA1102711999999REMMET073METAR ENBL 191620Z VRB01KT 9000 -SHSN FEW003 SCT016 BKN026 M02/M02 Q1027;
0174010015999992010011916504+61383+005867FM-15+0327ENBL V0209999V00051004801CN0090001N1-00201-00201999999ADDGA1021+000901999GA2041+004801999GA3071+006601999GF107991999999999999999999MA1102711999999REMMET073METAR ENBL 191650Z VRB01KT 9000 -SHSN FEW003 SCT016 BKN022 M02/M02 Q1027;
0174010015999992010011917204+61383+005867FM-15+0327ENBL V0209999V00051004801CN0090001N1-00201-00201999999ADDGA1021+000901999GA2041+004801999GA3071+006601999GF107991999999999999999999MA1102711999999REMMET073METAR ENBL 191720Z VRB01KT 9000 -SHSN FEW003 SCT016 BKN022 M02/M02 Q1027;
0168010015999992010011917504+61383+005867FM-15+0327ENBL V0209999V000512200019N0112651N1-00201-00201999999ADDGA1021+000901999GA2041+006601999GA3041+009001999GF104991999999999999999999MA1102711999999REMMET067METAR ENBL 191750Z VRB01KT 9999 FEW003 SCT022 SCT030 M02/M02 Q1027;
0168010015999992010011918204+61383+005867FM-15+0327ENBL V0209999V000512200019N0112651N1-00201-00201999999ADDGA1021+000901999GA2041+006601999GA3041+009001999GF104991999999999999999999MA1102711999999REMMET067METAR ENBL 191820Z VRB01KT 9999 FEW003 SCT022 SCT030 M02/M02 Q1027;
0168010015999992010011918504+61383+005867FM-15+0327ENBL V0209999V000512200019N0112651N1-00301-00301999999ADDGA1021+000901999GA2041+006601999GA3041+009001999GF104991999999999999999999MA1102711999999REMMET067METAR ENBL 191850Z VRB01KT 9999 FEW003 SCT022 SCT030 M03/M03 Q1027;
0145010015999992010011919204+61383+005867FM-15+0327ENBL V0209999V001012200019N0112651N1-00301-00301999999ADDGA1021+000901999GA2041+006601999GF104991999999999999999999MA1102711999999REMMET060METAR ENBL 191920Z VRB02KT 9999 FEW003 SCT022 M03/M03 Q1027;
0145010015999992010011919504+61383+005867FM-15+0327ENBL V0209999V000512200019N0112651N1-00301-00301999999ADDGA1021+000901999GA2041+006601999GF104991999999999999999999MA1102711999999REMMET060METAR ENBL 191950Z VRB01KT 9999 FEW003 SCT022 M03/M03 Q1027;
0145010015999992010011920504+61383+005867FM-15+0327ENBL V0209999V000512200019N0112651N1-00301-00301999999ADDGA1021+000151999GA2041+007201999GF104991999999999999999999MA1102711999999REMMET060METAR ENBL 192050Z VRB01KT 9999 FEW000 SCT024 M03/M03 Q1027;
0122010015999992010011921204+61383+005867FM-15+0327ENBL V0209999V000512200019N0112651N1-00201-00201999999ADDGA1021+000151999GF102991999999999999999999MA1102711999999REMMET053METAR ENBL 192120Z VRB01KT 9999 FEW000 M02/M02 Q1027;
0122010015999992010011922204+61383+005867FM-15+0327ENBL V0209999V000512200019N0112651N1-00201-00201999999ADDGA1021+000151999GF102991999999999999999999MA1102711999999REMMET053METAR ENBL 192220Z VRB01KT 9999 FEW000 M02/M02 Q1027;
0122010015999992010012004504+61383+005867FM-15+0327ENBL V0200501N001512200019N0112651N1-00201-00401999999ADDGA1021+001201999GF102991999999999999999999MA1102511999999REMMET053METAR ENBL 200450Z 05003KT 9999 FEW004 M02/M04 Q1025;
0122010015999992010012005204+61383+005867FM-15+0327ENBL V0200501N002112200019N0112651N1-00101-00401999999ADDGA1021+001201999GF102991999999999999999999MA1102511999999REMMET053METAR ENBL 200520Z 05004KT 9999 FEW004 M01/M04 Q1025;
0122010015999992010012005504+61383+005867FM-15+0327ENBL V0200401N002112200019N0112651N1-00201-00501999999ADDGA1021+001201999GF102991999999999999999999MA1102511999999REMMET053METAR ENBL 200550Z 04004KT 9999 FEW004 M02/M05 Q1025;
0122010015999992010012006204+61383+005867FM-15+0327ENBL V0200401N001512200019N0112651N1-00101-00401999999ADDGA1021+001201999GF102991999999999999999999MA1102511999999REMMET053METAR ENBL 200620Z 04003KT 9999 FEW004 M01/M04 Q1025;
0122010015999992010012006504+61383+005867FM-15+0327ENBL V0200501N001512200019N0112651N1-00101-00501999999ADDGA1021+001201999GF102991999999999999999999MA1102511999999REMMET053METAR ENBL 200650Z 05003KT 9999 FEW004 M01/M05 Q1025;
0074010015999992010012007204+61383+005867FM-15+0327ENBL V0209999V001019999999Y0099001N1-00301-00501999999ADDMA1102511999999REMMET047METAR ENBL 200720Z VRB02KT CAVOK M03/M05 Q1025;
0074010015999992010012007504+61383+005867FM-15+0327ENBL V0209999V001019999999Y0099001N1-00101-00401999999ADDMA1102511999999REMMET047METAR ENBL 200750Z VRB02KT CAVOK M01/M04 Q1025;
0074010015999992010012008204+61383+005867FM-15+0327ENBL V0203501N001519999999Y0099001N1-00401-00601999999ADDMA1102511999999REMMET047METAR ENBL 200820Z 35003KT CAVOK M04/M06 Q1025;
0074010015999992010012008504+61383+005867FM-15+0327ENBL V0203301N001519999999Y0099001N1-00401-00501999999ADDMA1102511999999REMMET047METAR ENBL 200850Z 33003KT CAVOK M04/M05 Q1025;
0074010015999992010012009204+61383+005867FM-15+0327ENBL V0209999V001019999999Y0099001N1-00301-00601999999ADDMA1102511999999REMMET047METAR ENBL 200920Z VRB02KT CAVOK M03/M06 Q1025;
0074010015999992010012009504+61383+005867FM-15+0327ENBL V0209999V001019999999Y0099001N1-00201-00601999999ADDMA1102511999999REMMET047METAR ENBL 200950Z VRB02KT CAVOK M02/M06 Q1025;
0074010015999992010012010204+61383+005867FM-15+0327ENBL V0209999V001519999999Y0099001N1+00001-00501999999ADDMA1102511999999REMMET047METAR ENBL 201020Z VRB03KT CAVOK M00/M05 Q1025;
0074010015999992010012010504+61383+005867FM-15+0327ENBL V0209999V001519999999Y0099001N1+00001-00401999999ADDMA1102511999999REMMET047METAR ENBL 201050Z VRB03KT CAVOK M00/M04 Q1025;
0073010015999992010012011504+61383+005867FM-15+0327ENBL V0209999V001019999999Y0099001N1+00201-00501999999ADDMA1102511999999REMMET046METAR ENBL 201150Z VRB02KT CAVOK 02/M05 Q1025;
0073010015999992010012012204+61383+005867FM-15+0327ENBL V0201301N003619999999Y0099001N1+00201-00501999999ADDMA1102401999999REMMET046METAR ENBL 201220Z 13007KT CAVOK 02/M05 Q1024;
0073010015999992010012012504+61383+005867FM-15+0327ENBL V0201701N003619999999Y0099001N1+00101-00601999999ADDMA1102401999999REMMET046METAR ENBL 201250Z 17007KT CAVOK 01/M06 Q1024;
0073010015999992010012013204+61383+005867FM-15+0327ENBL V0201401N002119999999Y0099001N1+00101-00601999999ADDMA1102511999999REMMET046METAR ENBL 201320Z 14004KT CAVOK 01/M06 Q1025;
0121010015999992010012013504+61383+005867FM-15+0327ENBL V0201501N005112200019N0112651N1+00101-00701999999ADDGA1021+012001999GF102991999999999999999999MA1102401999999REMMET052METAR ENBL 201350Z 15010KT 9999 FEW040 01/M07 Q1024;
0121010015999992010012014204+61383+005867FM-15+0327ENBL V0209999V002612200019N0112651N1+00101-00701999999ADDGA1021+012001999GF102991999999999999999999MA1102511999999REMMET052METAR ENBL 201420Z VRB05KT 9999 FEW040 01/M07 Q1025;
0122010015999992010012014504+61383+005867FM-15+0327ENBL V0209999V001512200019N0112651N1-00101-00701999999ADDGA1021+010501999GF102991999999999999999999MA1102511999999REMMET053METAR ENBL 201450Z VRB03KT 9999 FEW035 M01/M07 Q1025;
0122010015999992010012015204+61383+005867FM-15+0327ENBL V0209999V001012200019N0112651N1-00101-00701999999ADDGA1021+010501999GF102991999999999999999999MA1102511999999REMMET053METAR ENBL 201520Z VRB02KT 9999 FEW035 M01/M07 Q1025;
0122010015999992010012015504+61383+005867FM-15+0327ENBL V0209999V001512200019N0112651N1-00301-00701999999ADDGA1021+012001999GF102991999999999999999999MA1102611999999REMMET053METAR ENBL 201550Z VRB03KT 9999 FEW040 M03/M07 Q1026;
0122010015999992010012016204+61383+005867FM-15+0327ENBL V0202501N002112200019N0112651N1-00201-00701999999ADDGA1021+012001999GF102991999999999999999999MA1102611999999REMMET053METAR ENBL 201620Z 25004KT 9999 FEW040 M02/M07 Q1026;
0122010015999992010012016504+61383+005867FM-15+0327ENBL V0209999V000512200019N0112651N1-00301-00701999999ADDGA1021+015001999GF102991999999999999999999MA1102611999999REMMET053METAR ENBL 201650Z VRB01KT 9999 FEW050 M03/M07 Q1026;
0122010015999992010012017504+61383+005867FM-15+0327ENBL V0209999V001512200019N0112651N1-00401-00701999999ADDGA1021+015001999GF102991999999999999999999MA1102611999999REMMET053METAR ENBL 201750Z VRB03KT 9999 FEW050 M04/M07 Q1026;
0123010015999992010012018504+61383+005867FM-15+0327ENBL V0200901N003112200019N0112651N1-00301+99999999999ADDGA1021+015001999GF102991999999999999999999MA1102511999999REMMET054METAR ENBL 201850Z 09006KT 9999 FEW050 M03/M099 Q1025;
0074010015999992010012019504+61383+005867FM-15+0327ENBL V0209999V001019999999Y0099001N1-00301-00901999999ADDMA1102511999999REMMET047METAR ENBL 201950Z VRB02KT CAVOK M03/M09 Q1025;
0074010015999992010012020504+61383+005867FM-15+0327ENBL V0201101N002619999999Y0099001N1-00201-00901999999ADDMA1102511999999REMMET047METAR ENBL 202050Z 11005KT CAVOK M02/M09 Q1025;
0074010015999992010012021504+61383+005867FM-15+0327ENBL V0209999V000519999999Y0099001N1-00201-00901999999ADDMA1102611999999REMMET047METAR ENBL 202150Z VRB01KT CAVOK M02/M09 Q1026;
0145010015999992010012104504+61383+005867FM-15+0327ENBL V0201201N004110210019N0112651N1-00201-01201999999ADDGA1041+015001999GA2071+021001999GF107991999999999999999999MA1102711999999REMMET060METAR ENBL 210450Z 12008KT 9999 SCT050 BKN070 M02/M12 Q1027;
0145010015999992010012106204+61383+005867FM-15+0327ENBL V0201201N005110210019N0112651N1-00301-01201999999ADDGA1041+015001999GA2071+021001999GF107991999999999999999999MA1102711999999REMMET060METAR ENBL 210620Z 12010KT 9999 SCT050 BKN070 M03/M12 Q1027;
0145010015999992010012106504+61383+005867FM-15+0327ENBL V0201201N005112200019N0112651N1-00301-01201999999ADDGA1041+015001999GA2041+021001999GF104991999999999999999999MA1102711999999REMMET060METAR ENBL 210650Z 12010KT 9999 SCT050 SCT070 M03/M12 Q1027;
0122010015999992010012107504+61383+005867FM-15+0327ENBL V0200901N003112200019N0112651N1-00501-01301999999ADDGA1021+015001999GF102991999999999999999999MA1102711999999REMMET053METAR ENBL 210750Z 09006KT 9999 FEW050 M05/M13 Q1027;
0122010015999992010012108504+61383+005867FM-15+0327ENBL V0200501N002612200019N0112651N1-00401-01201999999ADDGA1021+015001999GF102991999999999999999999MA1102811999999REMMET053METAR ENBL 210850Z 05005KT 9999 FEW050 M04/M12 Q1028;
0122010015999992010012109204+61383+005867FM-15+0327ENBL V0200601N002112200019N0112651N1-00401-01201999999ADDGA1021+015001999GF102991999999999999999999MA1102811999999REMMET053METAR ENBL 210920Z 06004KT 9999 FEW050 M04/M12 Q1028;
0122010015999992010012110504+61383+005867FM-15+0327ENBL V0209999V002612200019N0112651N1-00201-01201999999ADDGA1021+015001999GF102991999999999999999999MA1102811999999REMMET053METAR ENBL 211050Z VRB05KT 9999 FEW050 M02/M12 Q1028;
0122010015999992010012111204+61383+005867FM-15+0327ENBL V0201301N004112200019N0112651N1-00201-01101999999ADDGA1021+015001999GF102991999999999999999999MA1102811999999REMMET053METAR ENBL 211120Z 13008KT 9999 FEW050 M02/M11 Q1028;
0074010015999992010012111504+61383+005867FM-15+0327ENBL V0201401N003619999999Y0099001N1-00201-01201999999ADDMA1102811999999REMMET047METAR ENBL 211150Z 14007KT CAVOK M02/M12 Q1028;
0074010015999992010012112204+61383+005867FM-15+0327ENBL V0201401N002619999999Y0099001N1-00201-01201999999ADDMA1102811999999REMMET047METAR ENBL 211220Z 14005KT CAVOK M02/M12 Q1028;
0074010015999992010012112504+61383+005867FM-15+0327ENBL V0201501N004619999999Y0099001N1-00201-01201999999ADDMA1102811999999REMMET047METAR ENBL 211250Z 15009KT CAVOK M02/M12 Q1028;
0074010015999992010012114204+61383+005867FM-15+0327ENBL V0209999V002619999999Y0099001N1-00201-01201999999ADDMA1102811999999REMMET047METAR ENBL 211420Z VRB05KT CAVOK M02/M12 Q1028;
